:020000040800F2
:100000000000022075200008911F0008931F0008BF
:10001000951F0008971F0008991F000800000000A6
:100020000000000000000000000000009B1F00080E
:100030009D1F0008000000009F1F0008A11F00086E
:10004000C5200008C5200008C5200008C5200008FC
:10005000C5200008C5200008C5200008C5200008EC
:10006000C5200008C5200008C5200008C5200008DC
:10007000C5200008C5200008C5200008C5200008CC
:10008000C5200008C5200008C5200008C5200008BC
:10009000C5200008C5200008C5200008C5200008AC
:1000A000C5200008C5200008C5200008C52000089C
:1000B000C5200008C5200008C5200008C52000088C
:1000C000C5200008C5200008C5200008C52000087C
:1000D000C5200008C5200008C5200008A51F00088D
:1000E000C5200008C5200008C5200008C52000085C
:1000F000C5200008C5200008C5200008C52000084C
:10010000C5200008C5200008C5200008C52000083B
:10011000C5200008C5200008C5200008C52000082B
:10012000C5200008C5200008C5200008C52000081B
:10013000C5200008C5200008C5200008C52000080B
:10014000C5200008C5200008C5200008C5200008FB
:10015000C5200008C5200008C5200008C5200008EB
:10016000C5200008C5200008C5200008C5200008DB
:10017000C5200008C5200008C520000800000000B8
:08018000C5200008C52000089D
:1001900010B5054C237833B9044B13B10448AFF3C1
:1001A00000800123237010BDDC010020000000004E
:1001B0007483000808B5034B1BB103490348AFF330
:1001C000008008BD00000000E001002074830008EA
:1001D000034613F8012B002AFBD1181A0138704787
:1001E00001F0FF01102A2BDB10F0070F08D010F8E8
:1001F000013B013A8B422DD010F0070F42B3F6D1EC
:10020000F0B441EA012141EA014122F007047FF004
:1002100000070023F0E80256083C85EA010586EA5B
:10022000010685FA47F5A3FA87F586FA47F6A5FA97
:1002300087F68EB9EED1F0BC01F0FF0102F00702A3
:1002400032B110F8013B013A83EA010313B1F8D14E
:100250000020704701387047002D06BF354603382F
:10026000073815F0010F07D1013015F4807F02BF68
:10027000013015F4C03F0130F0BC0138704700BFB9
:1002800081F0004102E000BF83F0004330B54FEA47
:1002900041044FEA430594EA050F08BF90EA020FB4
:1002A0001FBF54EA000C55EA020C7FEA645C7FEA47
:1002B000655C00F0E2804FEA5454D4EB5555B8BF6A
:1002C0006D420CDD2C4480EA020281EA030382EADB
:1002D000000083EA010180EA020281EA0303362D6D
:1002E00088BF30BD11F0004F4FEA01314FF4801C40
:1002F0004CEA113102D0404261EB410113F0004F52
:100300004FEA03334CEA133302D0524263EB430308
:1003100094EA050F00F0A780A4F10104D5F1200EA6
:100320000DDB02FA0EFC22FA05F2801841F1000101
:1003300003FA0EF2801843FA05F359410EE0A5F1D5
:1003400020050EF1200E012A03FA0EFC28BF4CF006
:10035000020C43FA05F3C01851EBE37101F00045BC
:1003600007D54FF0000EDCF1000C7EEB00006EEBC9
:100370000101B1F5801F1BD3B1F5001F0CD3490853
:100380005FEA30004FEA3C0C04F101044FEA4452AA
:1003900012F5800F80F09A80BCF1004F08BF5FEA31
:1003A000500C50F1000041EB045141EA050130BD11
:1003B0005FEA4C0C404141EB0101013C28BFB1F523
:1003C000801FE9D291F0000F04BF01460020B1FA6E
:1003D00081F308BF2033A3F10B03B3F120020CDA41
:1003E0000C3208DD02F1140CC2F10C0201FA0CF01F
:1003F00021FA02F10CE002F11402D8BFC2F1200C84
:1004000001FA02F120FA0CFCDCBF41EA0C01904039
:10041000E41AA2BF01EB0451294330BD6FEA040482
:100420001F3C1CDA0C340EDC04F11404C4F120026D
:1004300020FA04F001FA02F340EA030021FA04F37F
:1004400045EA030130BDC4F10C04C4F1200220FAD6
:1004500002F001FA04F340EA0300294630BD21FA14
:1004600004F0294630BD94F0000F83F4801306BFDA
:1004700081F480110134013D4EE77FEA645C18BFCE
:100480007FEA655C29D094EA050F08BF90EA020F65
:1004900005D054EA000C04BF1946104630BD91EA5D
:1004A000030F1EBF0021002030BD5FEA545C05D160
:1004B0004000494128BF41F0004130BD14F580049F
:1004C0003CBF01F5801130BD01F0004545F0FE4113
:1004D00041F470014FF0000030BD7FEA645C1ABF48
:1004E000194610467FEA655C1CBF0B46024650EA7F
:1004F000013406BF52EA033591EA030F41F40021AB
:1005000030BD00BF90F0000F04BF0021704730B530
:100510004FF4806404F132044FF000054FF0000105
:1005200050E700BF90F0000F04BF0021704730B5C6
:100530004FF4806404F1320410F0004548BF40429B
:100540004FF000013EE700BF42004FEAE2014FEAF0
:1005500031014FEA02701FBF12F07F4393F07F4FCB
:1005600081F06051704732F07F4208BF704793F0CE
:100570007F4F04BF41F40021704730B54FF46074E1
:1005800001F0004521F000411CE700BF50EA0102E4
:1005900008BF704730B54FF000050AE050EA01028D
:1005A00008BF704730B511F0004502D5404261EBFD
:1005B00041014FF4806404F132045FEA915C3FF43E
:1005C000D8AE4FF003025FEADC0C18BF03325FEADB
:1005D000DC0C18BF033202EBDC02C2F1200300FA8C
:1005E00003FC20FA02F001FA03FE40EA0E0021FAB1
:1005F00002F11444BDE600BF70B54FF0FF0C4CF49F
:10060000E06C1CEA11541DBF1CEA135594EA0C0F50
:1006100095EA0C0F00F0DEF82C4481EA030621EA8B
:100620004C5123EA4C5350EA013518BF52EA0335C6
:1006300041F4801143F4801338D0A0FB02CE4FF078
:100640000005E1FB02E506F00042E0FB03E54FF0A8
:100650000006E1FB03569CF0000F18BF4EF0010EA0
:10066000A4F1FF04B6F5007F64F5407404D25FEA9C
:100670004E0E6D4146EB060642EAC62141EA55514F
:100680004FEAC52040EA5E504FEACE2EB4F1FD0C91
:1006900088BFBCF5E06F1ED8BEF1004F08BF5FEA0F
:1006A000500E50F1000041EB045170BD06F00046C1
:1006B00046EA010140EA020081EA0301B4EB5C046E
:1006C000C2BFD4EB0C0541EA045170BD41F4801166
:1006D0004FF0000E013C00F3AB8014F1360FDEBF8B
:1006E000002001F0004170BDC4F10004203C35DA67
:1006F0000C341BDC04F11404C4F1200500FA05F3EA
:1007000020FA04F001FA05F240EA020001F000428A
:1007100021F0004110EBD37021FA04F642EB060100
:100720005EEA430E08BF20EAD37070BDC4F10C042A
:10073000C4F1200500FA04F320FA05F001FA04F2EE
:1007400040EA020001F0004110EBD37041F10001DA
:100750005EEA430E08BF20EAD37070BDC4F12005E5
:1007600000FA05F24EEA020E20FA04F301FA05F24D
:1007700043EA020321FA04F001F0004121FA04F2F5
:1007800020EA020000EBD3705EEA430E08BF20EAC5
:10079000D37070BD94F0000F0FD101F000464000FF
:1007A00041EB010111F4801F08BF013CF7D041EA81
:1007B000060195F0000F18BF704703F00046520085
:1007C00043EB030313F4801F08BF013DF7D043EA56
:1007D0000603704794EA0C0F0CEA135518BF95EA0C
:1007E0000C0F0CD050EA410618BF52EA4306D1D193
:1007F00081EA030101F000414FF0000070BD50EAB2
:10080000410606BF1046194652EA430619D094EA3B
:100810000C0F02D150EA013613D195EA0C0F05D125
:1008200052EA03361CBF104619460AD181EA030179
:1008300001F0004141F0FE4141F470014FF0000031
:1008400070BD41F0FE4141F4780170BD70B54FF0CC
:10085000FF0C4CF4E06C1CEA11541DBF1CEA13554C
:1008600094EA0C0F95EA0C0F00F0A7F8A4EB05042E
:1008700081EA030E52EA03354FEA013100F0888025
:100880004FEA03334FF0805545EA131343EA1263EE
:100890004FEA022245EA111545EA10654FEA0026A3
:1008A0000EF000419D4208BF964244F1FD0404F55C
:1008B000407402D25B084FEA3202B61A65EB0305B8
:1008C0005B084FEA32024FF480104FF4002CB6EB75
:1008D000020E75EB030E22BFB61A754640EA0C00F5
:1008E0005B084FEA3202B6EB020E75EB030E22BF35
:1008F000B61A754640EA5C005B084FEA3202B6EB76
:10090000020E75EB030E22BFB61A754640EA9C0034
:100910005B084FEA3202B6EB020E75EB030E22BF04
:10092000B61A754640EADC0055EA060E18D04FEAC2
:10093000051545EA16754FEA06164FEAC30343EA62
:1009400052734FEAC2025FEA1C1CC0D111F4801F2F
:100950000BD141EA00014FF000004FF0004CB6E728
:1009600011F4801F04BF01430020B4F1FD0C88BFC7
:10097000BCF5E06F3FF6AFAEB5EB030C04BFB6EBD2
:10098000020C5FEA500C50F1000041EB045170BDC5
:100990000EF0004E4EEA113114EB5C04C2BFD4EBF2
:1009A0000C0541EA045170BD41F480114FF0000E76
:1009B000013C90E645EA060E8DE60CEA135594EAF2
:1009C0000C0F08BF95EA0C0F3FF43BAF94EA0C0FF5
:1009D0000AD150EA01347FF434AF95EA0C0F7FF46A
:1009E00025AF104619462CE795EA0C0F06D152EABE
:1009F00003353FF4FDAE1046194622E750EA4106A2
:100A000018BF52EA43067FF4C5AE50EA41047FF4B2
:100A10000DAF52EA43057FF4EBAE12E74FF0FF3C17
:100A200006E000BF4FF0010C02E000BF4FF0010CE8
:100A30004DF804CD4FEA410C7FEA6C5C4FEA430C61
:100A400018BF7FEA6C5C1BD001B050EA410C0CBFB0
:100A500052EA430C91EA030F02BF90EA020F002012
:100A6000704710F1000F91EA030F58BF994208BF79
:100A700090422CBFD8176FEAE37040F00100704736
:100A80004FEA410C7FEA6C5C02D150EA013C07D18D
:100A90004FEA430C7FEA6C5CD6D152EA033CD3D0D8
:100AA0005DF8040B704700BF8446104662468C46D2
:100AB0001946634600E000BF01B5FFF7B7FF002805
:100AC00048BF10F1000F01BD4DF808EDFFF7F4FF2E
:100AD0000CBF012000205DF808FB00BF4DF808EDB9
:100AE000FFF7EAFF34BF012000205DF808FB00BFDC
:100AF0004DF808EDFFF7E0FF94BF012000205DF8FE
:100B000008FB00BF4DF808EDFFF7CEFF94BF0120B2
:100B100000205DF808FB00BF4DF808EDFFF7C4FFAB
:100B200034BF012000205DF808FB00BF4FEA410CF4
:100B30007FEA6C5C02D150EA013C0AD14FEA430CD7
:100B40007FEA6C5C02D152EA033C02D14FF0000014
:100B500070474FF0010070474FEA410212F5001252
:100B600015D211D56FF47873B3EB625212D94FEAF4
:100B7000C12343F0004343EA505311F0004F23FADE
:100B800002F018BF404270474FF00000704750EA33
:100B9000013005D111F0004008BF6FF000407047F0
:100BA0004FF00000704700BF4FEA4102B2F1E0434E
:100BB00024BFB3F5001CDCF1FE5C0DD901F0004C44
:100BC0004FEAC0024CEA5070B2F1004F40EB830094
:100BD00008BF20F00100704711F0804F21D113F1C0
:100BE0003872BCBF01F00040704741F480114FEAF9
:100BF0005252C2F11802C2F1200C10FA0CF320FA82
:100C000002F018BF40F001004FEAC1234FEAD3239E
:100C100003FA0CFC40EA0C0023FA02F34FEA430308
:100C2000CCE77FEA625307D150EA01331EBF4FF091
:100C3000FE4040F44000704701F0004040F0FE40AC
:100C400040F40000704700BF53B94AB9002908BFFB
:100C500000281CBF4FF0FF314FF0FF3000F074B997
:100C6000ADF1080C6DE904CE00F006F8DDF804E003
:100C7000DDE9022304B070472DE9F047089D0446E2
:100C80008E46002B4DD18A42944669D9B2FA82F23F
:100C900052B101FA02F3C2F1200120FA01F10CFA7B
:100CA00002FC41EA030E94404FEA1C48210CBEFBB3
:100CB000F8F61FFA8CF708FB16E341EA034306FB3C
:100CC00007F199420AD91CEB030306F1FF3080F0CB
:100CD0001F81994240F21C81023E63445B1AA4B218
:100CE000B3FBF8F008FB103344EA034400FB07F7BA
:100CF000A7420AD91CEB040400F1FF3380F00A81FB
:100D0000A74240F207816444023840EA0640E41BEF
:100D100000261DB1D4400023C5E900433146BDE89B
:100D2000F0878B4209D9002D00F0EF800026C5E93D
:100D3000000130463146BDE8F087B3FA83F6002E55
:100D40004AD18B4202D3824200F2F980841A61EBCD
:100D5000030301209E46002DE0D0C5E9004EDDE7EB
:100D600002B9FFDEB2FA82F2002A40F09280A1EBD3
:100D70000C014FEA1C471FFA8CFE0126200CB1FB28
:100D8000F7F307FB131140EA01410EFB03F0884221
:100D900008D91CEB010103F1FF3802D2884200F2AE
:100DA000CB804346091AA4B2B1FBF7F007FB101140
:100DB00044EA01440EFB00FEA64508D91CEB0404DE
:100DC00000F1FF3102D2A64500F2BB800846A4EB39
:100DD0000E0440EA03409CE7C6F12007B34022FA24
:100DE00007FC4CEA030C20FA07F401FA06F31C4353
:100DF000F9404FEA1C4900FA06F3B1FBF9F8200C60
:100E00001FFA8CFE09FB181140EA014108FB0EF0A5
:100E1000884202FA06F20BD91CEB010108F1FF3AF5
:100E200080F08880884240F28580A8F10208614401
:100E3000091AA4B2B1FBF9F009FB101144EA01410F
:100E400000FB0EFE8E4508D91CEB010100F1FF34BA
:100E50006CD28E456AD90238614440EA0840A0FB52
:100E60000294A1EB0E01A142C846A64656D353D028
:100E70005DB1B3EB080261EB0E0101FA07F722FA4C
:100E800006F3F1401F43C5E9007100263146BDE875
:100E9000F087C2F12003D8400CFA02FC21FA03F3D8
:100EA000914001434FEA1C471FFA8CFEB3FBF7F059
:100EB00007FB10360B0C43EA064300FB0EF69E427E
:100EC00004FA02F408D91CEB030300F1FF382FD217
:100ED0009E422DD9023863449B1B89B2B3FBF7F6BF
:100EE00007FB163341EA034106FB0EF38B4208D998
:100EF0001CEB010106F1FF3816D28B4214D9023ED9
:100F00006144C91A46EA004638E72E46284605E7F6
:100F10000646E3E61846F8E64B45A9D2B9EB0208C7
:100F200064EB0C0E0138A3E74646EAE7204694E757
:100F30004046D1E7D0467BE7023B614432E730468A
:100F400009E76444023842E7704700BF7FB50123D8
:100F50008DF817204FF0FF32CDE901320DF1170265
:100F6000009200680A46D02101F03AFD07B05DF812
:100F700004FB00001FB54FF0FF3C0123CDE9013C0D
:100F8000009200680A46D02101F0BAFD024B1870A9
:100F900005B05DF804FB00BF500200202DE9F041D0
:100FA0007B4B88B003AE944604468E4603F1100294
:100FB000354618685968374603C7083393423E469A
:100FC000F7D11B783B7000227F21C4E900EC20465A
:100FD000ADF81D208DF81F20FFF7B8FF6D4E0146BC
:100FE000307038B16C49284603F0CAFB002008B0C5
:100FF000BDE8F0810DF107022046FFF7BBFF074671
:10100000307008B16549EEE79DF80720644902A8F1
:1010100003F096FB02A9284603F0B2FB9DF80C30C2
:101020008DF81C70203B8DF818309DF80D30203B5A
:101030008DF819300D238DF81A304FF00A088DF80D
:101040000C30284649238DF80E308DF81B808DF822
:101050000D80FFF7BDF84FF0FF3382B2294660687C
:1010600002F0CAFC3A467F212046FFF76FFF30703E
:1010700008B14C49B7E7F12206212046FFF766FF89
:10108000307008B14849AEE7404601F06DF80122E2
:1010900006212046FFF75AFF307008B14349A2E706
:1010A000404601F061F83F2207212046FFF74EFF3E
:1010B0000746307008B13E4995E7404601F054F8C4
:1010C0003A4607212046FFF741FF307008B1394901
:1010D00089E7012210212046FFF738FF7F21307079
:1010E00020222046FFF732FF0146307008B1324916
:1010F00079E704222046FFF729FF307008B12F4915
:1011000071E7332201212046FFF720FF07463070A8
:1011100008B12B4967E7072211212046FFF716FF88
:101120003A46307010212046FFF710FF307008B1AA
:10113000244958E7312214212046FFF707FF0746CC
:10114000307008B120494EE7024653212046FFF790
:10115000FDFE20463A467F21FFF7F8FE0446307038
:1011600008B11A493FE7642000F0FEFF1849194A08
:1011700020462346033009280B6013604B60536000
:101180008B60936001F10C0102F10C02F2D12DE7AA
:101190009083000850020020A4830008AE8300085A
:1011A000B8830008BB830008C5830008D08300080B
:1011B000DB830008E6830008F1830008FB83000856
:1011C000058400080F84000819840008248400089E
:1011D0001C020020F8010020F7B5002301AA2E21EF
:1011E0000646ADF80430FFF7C5FE2C4F0DF10502A1
:1011F00038702D213046FFF7BDFE01AA387030212E
:101200003046BDF90450FFF7B5FE0DF10502387008
:101210002F213046FFF7AEFE01AA3870322130464A
:10122000BDF90440FFF7A6FE0DF10502387031212B
:101230003046FFF79FFE291EBCBF6FEA01316FEAFF
:10124000113107EE901A221EBDF90430DFED146A49
:101250003870B8BF6FEA0232B8EEE77AB8BF6FEA0B
:101260001232002B27EE267A07EE902ABCBF6FEAD7
:1012700003336FEA133386ED027AB8EEE77A07EEAE
:10128000903AF8EEE77A27EE267A67EEA67A86EDB0
:10129000037AC6ED047A03B0F0BD00BF500200200F
:1012A000C3F51C3A2DE9F04F2DED028B534E85B05E
:1012B000336800250446ADF80C503BB900F04EFFF2
:1012C000306005B0BDEC028BBDE8F08F00F046FF4A
:1012D00033684B4F3060C31A08EE103A494E4A4B00
:1012E000DFF830A1019304F1140B012DEBB203AA36
:1012F0005CD0022B64D034212046FFF73BFE0DF179
:101300000D028AF8000033212046FFF733FEBDF8B6
:101310000C303968D6F804C032688AF80000B3F59A
:10132000004FA4BFC3F57F4E00237868B860B4BFF8
:101330004FF0000E0EF1FF0E9942C6F808C079601A
:1013400072603B60C6F800E054DC884242DC0B4629
:1013500072454BDC944543DC9646019A52F8040BE7
:101360000192AEEB0303181AFFF7DCF8274B0022BB
:10137000FFF742F9804618EE100A8946FFF7C2F8D7
:1013800002460B4640464946FFF736F9204B0022FD
:10139000FFF75CFAFFF708FC0135032D4BF8040B4F
:1013A00007F10C0706F10C069FD18AE7362120468B
:1013B000FFF7E0FD0DF10D028AF800003521A3E7EB
:1013C00038212046FFF7D6FD0DF10D028AF8000006
:1013D000372199E79942BAD08342A8BF0346B7E7BD
:1013E0007245B9D0E645A8BFE646B6E79445B3DAFC
:1013F000E646B2E78842AADA0346A9E74C02002093
:10140000F80100201C0200204002002000408F3F15
:1014100000408F40500200202DE9F043002385B0AA
:10142000CDE901332E4E039304468846ADF80030D3
:101430004FF4007501AF4FF00009B9F1010F0FFA39
:1014400089F36A4639D0022B40D034212046FFF779
:1014500091FD0DF10102307033212046FFF78AFD26
:10146000BDF8003039683070B3F5004FABBFC3F53D
:101470007F431A46FF330023A8BF00220B4409F123
:1014800001099B1AB9F1030F47F8043BD5D1013D7F
:101490004046ADB200F068FE002DCBD1019A114B51
:1014A00052121A60029A52125A60039A52129A60A9
:1014B0000D4B1D6005B0BDE8F08336212046FFF7D7
:1014C00059FD0DF1010230703521C6E73821204663
:1014D000FFF750FD0DF1010230703721BDE700BF6D
:1014E00050020020400200204C02002000B595B0C0
:1014F0002C22002109A802F0B1FC1422002103A82B
:1015000002F0ACFC0023194A0193116C41F08051A8
:101510001164126C02F080520192019A144A0293F3
:10152000116841F48041116012680E9302F4804208
:101530000292029A0222089201201022CDE90B02A7
:1015400008A801F0E5FB014608B172B6FEE70F23DB
:10155000CDE90330CDE90500079003A801F0B6FD01
:1015600008B172B6FEE715B05DF804FB0038024022
:1015700000700040000000002DE9F04F2DED088BB9
:101580009DB000F0C5FDFFF7B1FF1422002114A8A3
:1015900002F064FC0024944B03941A6B934842F0CD
:1015A00010021A631A6B02F010020392039A049459
:1015B0001A6B42F008021A631A6B02F008020492D6
:1015C000049A05941A6B42F004021A631A6B02F033
:1015D00004020592059A06941A6B42F002021A63FD
:1015E0001B6B03F00203224606934FF4BC61069B7B
:1015F0004FF4BC6500F062FF01237C4814A9CDE9DB
:101600001453CDE9164400F07FFE4FF48073784800
:10161000169414A9CDE9143400F076FE1022214668
:1016200009A802F01BFC1C2221460DA8CDE90744A5
:1016300002F014FC2022214614A802F00FFC6D4D8C
:101640006D4BAC60C5E90034284641F61F43C5E93F
:101650000334C5E9054401F0EBFE08B172B6FEE7BC
:101660004FF4805609A92846099601F0D5FF08B124
:1016700072B6FEE7284601F007FF08B172B6FEE732
:10168000CDE9070007A9284602F062F8024608B132
:1016900072B6FEE76023CDE90D30CDE90F00CDE94C
:1016A000110013900DA9284601F050FF08B172B641
:1016B000FEE704220DA9284601F048FF08B172B6E2
:1016C000FEE7CDE91400CDE9160018904FF4005361
:1016D0001B9014A92846199302F078F8044608B123
:1016E00072B6FEE70146102209A802F0B7FB1C22E1
:1016F00021460DA8CDE9074402F0B0FB2022214687
:1017000014A802F0ABFB3D4D3D48AC60A023C5E9F9
:1017100000034FF47A732846C5E90334C5E905444C
:1017200001F086FE08B172B6FEE709A928460996BF
:1017300001F072FF08B172B6FEE7284601F0A4FE80
:1017400008B172B6FEE700232C4807A9CDE907339C
:1017500001F0FEFF08B172B6FEE76023CDE90D305F
:10176000CDE911000F9013900C2224480DA901F02F
:10177000EDFE08B172B6FEE7CDE91400CDE9160022
:1017800018904FF400531B9014A91C48199302F0B1
:101790001DF808B172B6FEE71A4C1B4920614FF4E0
:1017A000E133C4E900130C23C4E90200C4E90530A5
:1017B000E061204602F0F2F808B172B6FEE7134D80
:1017C000134B144A2862C5E900234FF48043C5E94E
:1017D0000200C5E90430C5E90600284601F058F8C2
:1017E000D0B172B6FEE700BF0038024000100240E0
:1017F000000C0240F002002000040140A80200207A
:10180000000001403803002000480040540200203E
:10181000A086010000540040E34822462946FFF715
:10182000BDFB002840F00282E0499FEDE18AE14ED5
:1018300014A802F0A5FF14AA1E210A2000F0CCFA79
:1018400000F02EFA4FF47A7000F08EFCD648224653
:101850000A21FFF7E1FDF0EE488AB0EE489AF0EE7B
:10186000489AD14DD4484FF4806100F02CFE2846B0
:10187000FFF7B2FC21462846FFF714FD6869FEF722
:1018800063FE02460B460DA8314602F059FF4FF0A9
:10189000FF3308220DA9204602F0AEF8A869FEF732
:1018A00053FE02460B460DA8314602F049FF4FF0A9
:1018B000FF3308220DA9204602F09EF8E869FEF7E2
:1018C00043FE02460B460DA8314602F039FF4FF0A9
:1018D000FF3308220DA9204602F08EF8A868FEF713
:1018E00033FE02460B460DA8314602F029FF4FF0A9
:1018F000FF3308220DA9204602F07EF8E868FEF7C3
:1019000023FE02460B460DA8314602F019FF4FF0A8
:10191000FF3308220DA9204602F06EF82869FEF771
:1019200013FE02460B460DA8314602F009FF4FF0A8
:10193000FF3308220DA9204602F05EF8D5ED057AA6
:10194000E86879EEE79AD5ED067A39EE679AD5ED33
:10195000077A78EEA78AFEF7F7FDD5ED047A95EDC4
:10196000027A67EEA77A41EC1A0BE7EE077A17EED8
:10197000900AFEF7E9FD41EC100B05F0B7F9B0EE67
:10198000401AF0EE601AB0EE4A0AF0EE6A0A05F06C
:10199000ABF9A86859EC108BFEF7D6FDD5ED047AAB
:1019A00095ED037A67EEA77A41EC1A0BE7EE077A1A
:1019B00017EE900AFEF7C8FD41EC100B05F096F902
:1019C000B0EE401AF0EE601AB0EE4A0AF0EE6A0A83
:1019D00005F08AF970A3D3E90023404649465BEC41
:1019E00010ABFEF733FF754B9FED75AA0022FEF793
:1019F00003FEFFF7D9F8FEF7A7FDD5ED057A38EE1F
:101A0000278A41EC1B0B68EE0A7A17EE900AFEF764
:101A10009BFD63A3D3E900238046894651EC1B0B51
:101A2000FEF7EAFD02460B4640464946FEF72EFC0D
:101A3000FFF7BAF80BF10043CDF800A0019308EED0
:101A4000100A55A3D3E90023DDE90001FEF7FEFEED
:101A50005A4B0022FEF7D0FDFFF7A6F8FEF774FD03
:101A6000D5ED067A78EE277A824667EE8A7A8B463B
:101A700017EE900AFEF768FD49A3D3E900238046DC
:101A8000894650465946FEF7B7FD02460B4640468A
:101A90004946FEF7FBFBFFF787F8FEF755FD0246C8
:101AA0000B4643EC1A2B3CA3D3E90023FEF7A4FD1D
:101AB000424B0022FEF7CAFE41EC100B05F0C0F8C5
:101AC00059EC108BE869FEF73FFD42464B46FEF7A6
:101AD00093FD804638468946FEF736FD02460B46A2
:101AE00040464946FEF7D2FBFFF75EF8074619EE7F
:101AF000900AFEF729FD02460B460DA8314602F07A
:101B00001FFE4FF0FF3308220DA9204601F074FF9D
:101B100019EE100AFEF718FD02460B460DA83146D5
:101B200002F00EFE4FF0FF3308220DA9204601F00F
:101B300063FF18EE900AFEF707FD02460B460DA85C
:101B4000314602F0FDFD0DA94FF0FF33082220467B
:101B500001F052FF53EC1B2B31460DA802F0F0FDB3
:101B60000DA94FF0FF330822204601F045FF5246F1
:101B70005B4631460DA802F0E3FD4FF0FF3308222B
:101B80000DA9204601F038FF18EE100AFEF7DCFC24
:101B9000024617E0AFF30080182D4454FB210940A2
:101BA000000000CCCCCCEC3F7C0300202F8400084C
:101BB000000000003D8400080010024000806640E4
:101BC000CDCCCC3D0B460DA8314602F0B9FD0DA998
:101BD0004FF0FF330822204601F00EFF53EC1A2B82
:101BE00031460DA802F0ACFD4FF0FF3308220DA9DD
:101BF000204601F001FF3846FEF7A6FC02460B46E0
:101C00000DA8314602F09CFD0DA94FF0FF330822CC
:101C1000204601F0F1FE09494FF0FF330222204631
:101C200001F0EAFE0A2000F09FFA1AE64FF0FF30BA
:101C30001DB0BDEC088BBDE8F08F00BF218400080B
:101C4000012970B50A46044618BF00221348134EF6
:101C50004FF4807100F032FC08250022202130462C
:101C600000F02CFC23064CBF01220022402130460C
:101C700000F024FC013D01222021304600F01EFC32
:101C8000640015F0FF05E4B2E7D1BDE870400348F9
:101C900001224FF4807100F011BC00BF001002401F
:101CA00070B50F4EB02400212046FFF7C9FF002178
:101CB0000846FFF7C5FF00211020FFF7C1FF0025F0
:101CC00016F8350001210135FFF7BAFF802DF7D155
:101CD0000134E4B2B82C06F10106E4D170BD00BFB6
:101CE000A00300200023084810B41C460022C1189D
:101CF00001F832400132802AFAD10133082BF5D1A4
:101D00005DF8044BFFF7CCBFA0030020030630B5FD
:101D100013D43F2911D801F007050A4CC908C1F1B5
:101D20000701C9B204EBC0000123C5F1070503FA9E
:101D300005F5435C12B12B43435430BD23EA050340
:101D4000FAE700BFA00300202DE9F74F1F46A2F1DC
:101D5000200A1F4B9DF830B05FFA8AFA03EB0A1392
:101D600000931C4B0AEB4A0A03EB8A038146884620
:101D700001930C460026B74202D103B0BDE8F08FB4
:101D80000C2F0CBF019B009B9D5D04F108035FFAC3
:101D900083FA2B0658BFBBFA8BF2214604F10104EB
:101DA0004CBF5A4652094846E4B2FFF7AFFFA4EBD6
:101DB00008026D00BA42EDB207D109F101005FFAE5
:101DC00080F9C24601365446D5E7A245E1D1F9E78C
:101DD000B888000844840008F7B504460D46561E2E
:101DE000012716F8013F0BB903B0F0BD7A2C82BF72
:101DF0001035EDB200243A2D03D9FFF773FF00250B
:101E00002C460097204632780C2329460834FFF7E9
:101E10009BFFE4B2E5E7000082B00C4B002100918B
:101E20005A6C42F480425A645A6C02F48042009226
:101E3000009A01911A6C42F080521A641B6C03F0F4
:101E400080530193019B02B0704700BF00380240ED
:101E500030B5044689B01422002103A801F0FEFF2A
:101E60002268144B9A4222D1134C14480025019544
:101E7000236B43F002032363236B03F002030193FC
:101E8000019B4FF440721223CDE903230321042365
:101E9000CDE9061303A900F037FA0295236C43F449
:101EA00000132364236C03F400130293029B09B014
:101EB00030BD00BF00540040003802400004024022
:101EC0000368114A934282B00DD1002300930F4B57
:101ED0005A6C42F001025A645B6C03F001030093F8
:101EE000009B02B070470A4A9342FAD10023019343
:101EF000064B5A6C42F002025A645B6C03F0020318
:101F00000193019BEDE700BF000001400038024053
:101F10000004014010B5044688B01422002103A833
:101F200001F09CFF2268184B9A422BD103F5F8333D
:101F3000002401941A6C154842F480221A641A6C29
:101F400002F480220192019A02941A6B42F0040278
:101F50001A631B6B03F0040302934FF44062029B6D
:101F60000223CDE9032303210723CDE9061303A9A7
:101F700000F0CAF927202246214600F01BF927204D
:101F800000F04AF908B010BD0048004000080240C7
:101F9000FEE7FEE7FEE7FEE7FEE7704770477047A3
:101FA00000F0D0B8014801F0DFBD00BF38030020C9
:101FB0000120704708B501F027FF162303604FF09A
:101FC000FF3008BD08B501F01FFF16230360FEE7D0
:101FD00070B50D4614460E46731B9C4201DC20462C
:101FE00070BDAFF3008006F8010BF5E770B50D4644
:101FF00014460E46731B9C4201DC204670BD16F849
:10200000010BAFF30080F5E74FF0FF3070474FF45E
:1020100000534B600020704701207047002070473C
:102020000B4A116810B5034609B90A4911601068D6
:1020300009490A4C0344091B8B4206D901F0E4FE0E
:102040000C2303604FF0FF3010BD1360FCE700BFAE
:10205000A0070020B80700200000022000040000B4
:10206000034AD2F8883043F47003C2F888307047CE
:1020700000ED00E0DFF834D00D480E490E4A002391
:1020800002E0D458C4500433C4188C42F9D30B4A2C
:102090000B4C002301E013600432A242FBD3FFF794
:1020A000DFFF01F0B7FEFFF767FA7047000002207C
:1020B00000000020DC010020F8940008DC01002072
:1020C000B8070020FEE7000038B50E4A0E4B054663
:1020D00018784FF47A73B3FBF0F31068B0FBF3F0A9
:1020E00000F0A8F8044658B90F2D09D80246294631
:1020F0004FF0FF3000F05EF8044B20461D6038BD05
:102100000120FCE70000002004000020080000205F
:1021100008B50B4B1A6842F400721A601A6842F450
:1021200080621A601A6842F480721A60032000F01C
:102130002FF80F20FFF7C8FFFFF76EFE002008BD45
:10214000003C0240034A044B11681B780B441360A7
:10215000704700BFA407002004000020014B18684E
:10216000704700BFA407002038B50446FFF7F6FF0C
:10217000631C1CBF054B1B78054618BFE418FFF70E
:10218000EDFF431BA342FAD338BD00BF040000207B
:102190000749CA6822F4E0620302120403F4E06310
:1021A000120C134343F0BF6343F40033CB6070471A
:1021B00000ED00E0164B30B5DC68C4F30224C4F136
:1021C0000705231D042D28BF0425062B4FF0FF33E0
:1021D0008CBF033C002403FA05F521EA0501A34066
:1021E00022EA0302A140002841EA0203ACBF00F149
:1021F0006040084A4FEA0313B8BF00F00F00DBB29B
:10220000AABF00F56140135480F8003330BD00BF11
:1022100000ED00E014ED00E0002808DB4209012396
:1022200000F01F0003FA00F0014B43F82200704752
:1022300000E100E00138B0F1807F0BD24FF0E023E5
:10224000054A5861F02182F8231000200722986186
:102250001A6170470120704700ED00E070B5044638
:10226000866DFFF77BFF94F83530022B054606D0CC
:1022700080236365002384F83430012070BD236817
:102280001A6822F016021A605A6922F080025A6116
:10229000226C0AB9A26C1AB11A6822F008021A60FC
:1022A0001A6822F001021A6023681B6813F0010308
:1022B0000AD1E16D3F228A40B260012284F83520C4
:1022C00084F834301846D9E7FFF748FF401B05284B
:1022D000EAD9202363650320002384F8350084F8BD
:1022E0003430CBE790F83530022B03D080234365A0
:1022F000012070470268052380F83530136823F009
:1023000001031360002070472DE9F74FDFF8A89113
:10231000674A00230D6801249C4004EA050CAC4385
:1023200040F0B1804D6805F003044FEA43080326EE
:10233000671E06FA08F6012F6FEA060634D887688A
:1023400007EA060ECF6807FA08F747EA0E07876024
:10235000476827EA0C0EC5F300179F4047EA0E07AF
:102360004760C76807EA060E8F6807FA08F747EA6A
:102370000E07022CC76019D14FEAD30A00EB8A0A74
:1023800003F0070BDAF820704FEA8B0B4FF00F0EBB
:102390000EFA0BFE27EA0E0E0F6907FA0BF747EA53
:1023A0000E07CAF8207001E0032CDAD1076804FA9E
:1023B00008F43E40264315F4403F066063D04FF0DA
:1023C000000ACDF804A0D9F844603A4C46F480469F
:1023D000C9F84460D9F8446006F480460196019E2D
:1023E00023F0030606F1804606F59C3603F0030E43
:1023F000D6F808804FEA8E0E0F2707FA0EF7A04294
:1024000028EA070746D004F58064A04244D004F5CA
:102410008064A04242D004F58064A04240D004F51C
:102420008064A0423ED004F58064A0423CD004F514
:102430008064A0423AD004F58064A0420CBF072417
:10244000082404FA0EF43C43B46014686FEA0C06E6
:10245000EF0354BF34404CEA040414605468AF03E3
:1024600054BF34404CEA040454609468EF0254BFF3
:1024700034404CEA04049460D468AD0254BF344044
:102480004CEA0404D4600133102B7FF443AF03B053
:10249000BDE8F08F5446D4E70124D2E70224D0E708
:1024A0000324CEE70424CCE70524CAE70624C8E7C2
:1024B000003C014000000240003802400AB1816146
:1024C00070470904FBE7436901EA030221EA0301BB
:1024D00041EA02418161704701684B6913F48063EE
:1024E0004FF0000210D06FF480634B612023026331
:1024F00080F83D3080F83E20036C80F83C2043F0AB
:102500000403036401207047184670472DE9F8461C
:1025100006460F4691461D464FEA114A3368BAF106
:10252000010F0CBF5C699C6927EA0404A4B2B4FAE9
:1025300084F46409A14501D0002017E06A1CEED0A4
:10254000FFF70CFE089BC01AA84201D8002DE5D168
:1025500000232022336386F83D2086F83E30326C1B
:1025600086F83C3042F0200232640120BDE8F88653
:102570002DE9F04104460F461646984625686869DD
:1025800027EA000080B2B8B16B695A0516D52B68EE
:1025900043F400732B606FF480636B61202200238F
:1025A000236384F83D2084F83E30226C42F004021C
:1025B000226484F83C300120BDE8F081731CDED039
:1025C000FFF7CCFDA0EB0800B04201D8002ED5D11A
:1025D00000232022236384F83D2084F83E30226CBF
:1025E00042F02002E4E770B504460D461646216825
:1025F0004B6913F0400301D0002010E04A69D20675
:102600000ED56FF010024A612022236384F83D202A
:1026100084F83E30226C226484F83C30012070BD86
:10262000FFF79CFD801BA84201D8002DDFD10023BD
:102630002022236384F83D2084F83E30226C42F04F
:102640002002E8E770B504460D46164623685B692C
:102650005B0701D5002070BD2046FFF73DFFA8B9FC
:102660006A1CF3D0FFF77AFD801BA84201D8002D29
:10267000ECD100232022236384F83D2084F83E30EF
:10268000226C84F83C3042F0200222640120E2E710
:1026900070B504460D46164623685B691B0601D5D6
:1026A000002070BD2046FFF717FFA8B96A1CF3D0C1
:1026B000FFF754FD801BA84201D8002DECD1002368
:1026C0002022236384F83D2084F83E30226C84F875
:1026D0003C3042F0200222640120E2E72DE9F04381
:1026E0001546026885B0DDE90C789946136843F415
:1026F000807313600E463B46CDF8008000224FF0F9
:1027000001110446FFF702FF236838B11B68DB059F
:1027100002D54FF40073236403200AE006F0FE069E
:102720001E61194943463A462046FFF721FF18B17A
:10273000012005B0BDE8F083236803905A69039235
:102740009B690393424639462046039BFFF7A0FF4F
:1027500040B1236C042B01BF2268136843F400735B
:102760001360E5E7B9F1010F236802D1EDB21D61F5
:10277000DFE72A0A1A61394642462046FFF788FFFA
:102780000028E6D12368F1E7020001002DE9FF47A8
:102790009A46036815461A6842F480621A601A68FD
:1027A000DDE90C7842F480721A600E463B46CDF8A3
:1027B000008000224FF001110446FFF7A7FE2368B6
:1027C00048B11B68DB0502D54FF400732364032076
:1027D00004B0BDE8F0875FFA86F906F0FE061E61D8
:1027E0002A4943463A462046FFF7C2FE08B1012077
:1027F000EEE7236803905A6903929B69039342466C
:1028000039462046039BFFF743FF40B1236C042B5E
:1028100001BF2268136843F400731360E7E7BAF15D
:10282000010F23681AD1EDB21D6142463946204698
:10283000FFF72EFF0028E9D12268136843F4807364
:1028400013604FF001110246CDF800803B46204650
:10285000FFF75CFE226860B11368B3E72A0A1A61C9
:10286000394642462046FFF713FF0028CED12368A1
:10287000D9E749F001031361044943463A4620462B
:10288000FFF776FE003818BF0120A1E70200010023
:1028900070B5044608B9012070BD90F83D3003F0D2
:1028A000FF021BB980F83C20FFF7D2FA242384F8FA
:1028B0003D3023681A6822F001021A601A6842F457
:1028C00000421A601A6822F400421A6000F09AFC72
:1028D0003F4B65689D4294BF3E4B3F4B98428CBF37
:1028E00000230123002BD6D12268394E53683B497F
:1028F000B0FBF1F123F03F030B43B542536088BFB7
:102900004FF49676136A88BF714323F03F0384BF68
:102910004FF47A76B1FBF6F1013119431162D169B6
:10292000431E2B4821F44F41854221F0FF0132D84C
:102930006D0040F6FC70B3FBF5F30133034242D067
:10294000C3F30B030B43D361D4E90730116803438E
:1029500021F0C0010B4313609168D4E9030321F413
:102960000341034321F0FF010B439360D4E9053099
:10297000D168034321F0FF010B43D360136843F098
:102980000103136000202023206484F83D3020637D
:1029900084F83E0080E7A06850B905EB4505B3FB1D
:1029A000F5F30133C3F30B037BB143F40043C9E7F1
:1029B00019204543B3FBF5F30133C3F30B0323B1F4
:1029C00043F44043BEE70423BCE70123BAE700BF5A
:1029D000A08601007F841E00FF083D0040420F00DA
:1029E0002DE9F743044699460C9E0F469046FFF7A3
:1029F000B5FB94F83D30202B054603D0022003B0F0
:102A0000BDE8F08300903C49192301222046FFF7DE
:102A10007DFD0028F2D194F83C30012BEED02068E7
:102A2000012384F83C300368D9075EBF036843F094
:102A300001030360036823F400630360212384F827
:102A40003D30402384F83E30002323640A9B6362B8
:102A5000BDF82C306385638D2385284BE362CDE977
:102A600000654B46424639462046FFF737FE0028B0
:102A70002AD00120C3E7FFF70BFE40B1236C042BE3
:102A800001BF2268136843F400731360F1E7636ABF
:102A900027681A4612F8011B39616262628D218D26
:102AA000013A92B262857A69481E80B25207208547
:102AB0000AD548B15A783A6102336362638D013BAB
:102AC00002399BB221856385238D2A4631462046F3
:102AD000002BD0D1FFF7B6FD0028CFD122681368B4
:102AE00043F400731360202384F83D3084F83C00E5
:102AF00084F83E0083E700BF020010000000FFFFE3
:102B00002DE9F043044687B09946109F0D46904644
:102B1000FFF724FB94F83D30202B064604D0022515
:102B2000284607B0BDE8F0830090764919230122BA
:102B30002046FFF7EBFC0028F1D194F83C30012B44
:102B4000EDD02068012384F83C300368DB075EBFCA
:102B5000036843F001030360036823F40063036028
:102B6000222384F83D30402384F83E300023236440
:102B70000E9B6362BDF83C306385638D2385624B99
:102B8000E3622946CDE900764B4642462046FFF7F0
:102B9000FDFD054608B10125C2E7228D2368B2B9C3
:102BA00002905A6902929A690292029A1A6842F451
:102BB00000721A60DFF85481238D002B2CD1202263
:102BC00084F83D2084F83C3084F83E30A8E7012AA0
:102BD0000AD11A6822F480621A6003905A6903923B
:102BE0009A690392039AE1E7022A0ED11A6822F445
:102BF00080621A601A6842F400621A6004905A698E
:102C000004929B690493049BD4E705905A6905924A
:102C10009B690593059BCDE7032B56D8012B15D156
:102C2000324639462046FFF7DEFC0028B3D1236840
:102C30001A69636A1A70636A01336362238D013B08
:102C40002385638D013B9BB26385B5E7022B00961C
:102C50003B464FF000024146204619D1FFF756FC93
:102C6000002898D123681A6842F400721A601A6921
:102C7000636A1A70626A531C6362238D013B238569
:102C8000638D013B9BB2638523681B695370D2E758
:102C9000FFF73CFC00287FF47EAF23681A6822F41B
:102CA00080621A601A69636A1A70636A0096013357
:102CB0006362238D013B2385638D013B9BB263855A
:102CC00002463B4641462046C8E732463946204642
:102CD000FFF789FC00287FF45EAF23681A69636AF6
:102CE0001A70626A531C6362238D013B2385638DD6
:102CF000013B9BB263852368596949077FF55CAF47
:102D0000C3E700BF020010000000FFFF0400010045
:102D10002DE9F341044640B30368DD0710D423686E
:102D200098075ED423681A0700F1A08023685B0728
:102D300000F1C080A069002840F0288100202BE02D
:102D40008F4B9A6802F00C02042A07D09A6802F0AE
:102D50000C02082A0BD15A68510208D5884B1B680F
:102D60009A03DCD56368002BD9D1012014E0626896
:102D7000B2F5803F13D11A6842F480321A60FFF72F
:102D8000EDF97F4E054633689B03C8D4FFF7E6F99B
:102D9000401B6428F7D9032002B0BDE8F081784DCC
:102DA000B2F5A02F2B6807D143F480232B602B684A
:102DB00043F480332B60E2E723F480332B602B68ED
:102DC00023F480232B60002AD9D1FFF7C7F90646E8
:102DD0002B689F03A3D5FFF7C1F9801B6428F7D99F
:102DE000D9E7674B9A6812F00C0F07D09A6802F087
:102DF0000C02082A11D15B685E020ED4604A136887
:102E00009D0702D5E368012BAFD11368216923F038
:102E1000F80343EAC103136084E7E268594BB2B197
:102E200001221A60FFF79AF9554D06462B6898075C
:102E300007D52B68226923F0F80343EAC2032B600D
:102E400070E7FFF78BF9801B0228EFD9A3E71A6020
:102E5000FFF784F94A4E0546336899077FF562AF5C
:102E6000FFF77CF9401B0228F6D994E76269454BCD
:102E700082B10122C3F8802EFFF770F9404E05465B
:102E8000736F9F073FF552AFFFF768F9401B0228A9
:102E9000F6D980E7C3F8802EFFF760F9384E054673
:102EA000736F98077FF542AFFFF758F9401B022870
:102EB000F6D970E7324B1A6C12F0805228D1019289
:102EC0001A6C42F080521A641B6C03F08053019319
:102ED000019B01272C4D2B68D9051BD5A368284DD4
:102EE000012B27D12B6F43F001032B67FFF736F936
:102EF000234E054641F28838336F9B0739D5002FA2
:102F00003FF418AF1E4A136C23F08053136411E78B
:102F10000027DFE72B6843F480732B60FFF71EF96F
:102F200006462B68DA05D9D4FFF718F9801B02286A
:102F3000F7D930E7052B04D12B6F43F004032B673F
:102F4000D0E72A6F22F001022A672A6F22F00402DA
:102F50002A67002BCAD1FFF701F941F288380646EB
:102F60002B6F9807CBD5FFF7F9F8801B4045F7D9B1
:102F700011E7FFF7F3F8401B4045BDD90BE700BF51
:102F8000003802400000474200700040364DAB68F8
:102F900003F00C03082B3DD0344B002202281A66A4
:102FA0002BD1FFF7DBF806462B6899011FD4D4E933
:102FB00007321343626A43EA8213E26A43EA026316
:102FC000A26A5208013A43EA02436B60274B264D3E
:102FD00001221A66FFF7C2F804462B689A013FF5F2
:102FE000ADAEFFF7BBF8001B0228F6D9D3E6FFF71A
:102FF000B5F8801B0228D7D9CDE6FFF7AFF8044615
:103000002B689B017FF59AAEFFF7A8F8001B0228FA
:10301000F6D9C0E601283FF4BFAE6B68E26903F45D
:10302000800191427FF4A1AE216A03F03F028A42FF
:103030007FF49BAE616A47F6C0721A40B2EB811F03
:103040007FF493AEA26A520803F44031013AB1EB27
:10305000024F7FF48AAEE26A03F07063B3EB026F53
:103060003FF46CAE81E600BF0038024000004742EA
:10307000134908B58B6803F00C03042B1CD0082BF4
:103080001CD14A684B68496813F4800314BF0D488B
:103090000D48C1F3881118BF002302F03F02A1FBC5
:1030A0000001FDF7D1FD064B5B68C3F3014301331B
:1030B0005B00B0FBF3F008BD0248FCE70248FAE70A
:1030C0000038024040787D010024F4002DE9F041F1
:1030D0000D46044610B90120BDE8F081444B1A6842
:1030E00002F007028A4228D3226897072DD4D0071E
:1030F00041D43F4B1A6802F00702AA4266D8226800
:1031000051076CD4130707D53A4A2169936823F411
:10311000604343EAC1039360FFF7AAFF354B364A89
:103120009B68C3F30313D35CD840344B1860344B13
:103130001868FEF7C9FF0020CEE7CAB21A701B68F4
:1031400003F007038B42C6D1CEE72A4B12F0040FDF
:103150001EBF996841F4E0519960160742BF996813
:1031600041F4604199602349A0688B6823F0F00323
:1031700003438B60BBE762681E4B012A1CD11B68AE
:1031800013F4003FA7D01B4EB36823F0030313438F
:10319000B360FEF7E3FF41F288380746B368626820
:1031A00003F00C03B3EB820FA3D0FEF7D7FFC01BD5
:1031B0004045F3D903208FE7911E01291B6802D8EF
:1031C00013F0007FDEE713F0020FDBE7EAB21A70BC
:1031D0001B6803F00703AB427FF47DAF8FE705491F
:1031E000E0688B6823F4E05303438B608AE700BFF9
:1031F000003C024000380240A88E00080000002079
:1032000008000020044B054A9B68C3F38223D35C6B
:10321000034A1068D840704700380240B88E000852
:1032200000000020044B054A9B68C3F34233D35C83
:10323000034A1068D840704700380240B88E000832
:1032400000000020036A23F001030362036A70B5E3
:10325000446882690D6822F073022A438D6823F066
:1032600002032B430E4DA84202D00E4EB04210D1A5
:10327000CE6823F008033343A84223F0040302D0AE
:10328000084DA84205D1D1E9055624F440743543D0
:103290002C43446082614A684263036270BD00BF90
:1032A0000000014000040140036A23F480730362BC
:1032B000036A70B54468C2690D6822F073022A433C
:1032C0008D6823F4007343EA0523114DA84203D00F
:1032D00005F58065A84214D1CD6823F4006343EA64
:1032E00005230B4DA84223F4806303D005F58065C8
:1032F000A84206D1D1E9055624F44054354344EAA6
:1033000005144460C2614A68C263036270BD00BFB5
:1033100000000140036A23F480530362036A30B55E
:103320004468C2690D6822F4E64242EA05228D68CB
:1033300023F4005343EA0533084DA84203D005F5B2
:103340008065A84204D14D6924F4804444EA851480
:103350004460C2614A680264036230BD00000140FB
:1033600070470000304A0368904212D0B0F1804F9D
:103370000FD0A2F57C4290420BD002F580629042C1
:1033800007D002F58062904203D002F57842904265
:1033900019D14A6823F070031343234A904229D07D
:1033A000B0F1804F26D0A2F57C42904222D002F5A7
:1033B000806290421ED002F5806290421AD002F5DF
:1033C0007842904216D0194A904213D002F580629A
:1033D00090420FD002F5806290420BD0A2F5983255
:1033E000904207D002F58062904203D002F58062DD
:1033F000904203D1CA6823F4407313434A6923F00F
:103400008003134303608B68C3620B688362064BBF
:10341000984203D003F58063984201D10B6903639E
:1034200001234361704700BF00000140004001409C
:1034300010B5044630B390F83D3003F0FF021BB9DD
:1034400080F83C20FEF73CFD0223206884F83D30E4
:10345000211DFFF787FF012384F84630002084F800
:103460003E3084F83F3084F8403084F8413084F8AE
:10347000423084F8433084F8443084F8453084F88E
:103480003D3010BD0120FCE710B5044630B390F884
:103490003D3003F0FF021BB980F83C20FFF760FFCE
:1034A0000223206884F83D30211DFFF75BFF0123D4
:1034B00084F84630002084F83E3084F83F3084F8A9
:1034C000403084F8413084F8423084F8433084F846
:1034D000443084F8453084F83D3010BD0120FCE7CD
:1034E000036A23F010030362036A70B544688269BB
:1034F0000D6822F4E64242EA05228D6823F020039B
:1035000043EA0513104DA84203D005F58065A84293
:1035100014D1CD6823F0800343EA05130A4DA84275
:1035200023F0400303D005F58065A84206D1D1E918
:10353000055624F44064354344EA850444608261BE
:103540004A688263036270BD0000014070B590F864
:103550003C30012B054653D00120082A85F83C0059
:103560003DD006D8C2B1042A28D0002385F83C30CB
:1035700070BD0C2AF9D12868FFF7CCFE2B680969C9
:10358000DA6942F40062DA61DA6922F48062DA61AF
:10359000DA6942EA012231E02868FFF753FE2B681E
:1035A00009699A6942F008029A619A6922F0040254
:1035B0009A619A690A439A610020D6E72868FFF762
:1035C0008FFF2B6809699A6942F400629A619A69CF
:1035D00022F480629A619A6942EA0122EBE7286844
:1035E000FFF762FE2B680969DA6942F00802DA61C6
:1035F000DA6922F00402DA61DA690A43DA61DBE7A8
:103600000220B5E710B58468114324F47F4441EAF1
:1036100003232343836010BD70B590F83C30012B29
:1036200004464FF0020300F09180012280F83D3003
:1036300080F83C200068836823F47F4323F07703FD
:1036400083600B68602B52D033D8402B67D016D8DC
:10365000202B0DD00AD833F0100109D0012384F8B3
:103660003D30002384F83C30104670BD302BF5D13E
:10367000826822F07002134343F0070317E0502BD7
:10368000ECD14A68CE68016A056A25F00105056239
:10369000836921F00A0123F0F00343EA06130A4389
:1036A00083610262836823F0700343F057038360F1
:1036B00011E0B3F5805F0ED0B3F5005F0DD0702B35
:1036C000CCD1CB68D1E90121FFF79CFF2268936838
:1036D00043F0770393600022C0E7CB68D1E9012172
:1036E000FFF790FF2268936843F48043F2E74D6848
:1036F000CE68016A21F0100101628269036A22F436
:10370000704223F0A00343EA051342EA06328261C5
:103710000362836823F0700343F06703C7E74A68D6
:10372000CE68016A056A25F001050562836921F00A
:103730000A0123F0F00343EA06130A43836102629D
:10374000836823F0700343F04703B0E71A468BE722
:1037500030B590F83C30012B4FF0020332D080F8A6
:103760003D3003680D685C689A6824F070042C434F
:103770005C60154CA3421AD0B3F1804F17D0A4F56A
:103780007C44A34213D004F58064A3420FD004F517
:103790008064A3420BD004F57844A34207D004F51B
:1037A0007054A34203D0A4F59434A34204D14968D1
:1037B00022F080020A439A60012380F83D30002302
:1037C00080F83C30184630BD0000014090F83C3095
:1037D000012B1FD0CB688A6823F4407313434A68D7
:1037E00023F4806313430A6823F4006313430A69D4
:1037F00023F4805313434A6923F400531343CA69E3
:1038000023F48043134302685364002380F83C3060
:103810001846704702207047026802F10C0353E813
:10382000003F23F490730C3242E800310268002913
:10383000F2D102F1140353E8003F23F0010302F137
:10384000140C4CE800310029F3D1036B012B0BD190
:1038500002F10C0353E8003F23F0100302F10C0CBB
:103860004CE800310029F3D1202380F83E300023BA
:10387000036370470268C168136923F440530B4324
:1038800070B51361054683680069D16803436869B0
:103890000343E86921F4164121F00C0103430B4373
:1038A000D3605369A96923F440730B4353611F4BE1
:1038B0009A4203D003F580639A4223D1FFF7B2FC0A
:1038C000EB691921B3F5004FD5E90046A0FB0101D2
:1038D0001BD1B2194FF000035B41FDF7B5F964212C
:1038E000B0FBF1F501FB1503DB003233B3FBF1F361
:1038F00003F007025B0002EB051203F4F8731344B4
:10390000A36070BDFFF77EFCDAE7B200B30FFDF7EE
:103910009BF96422B0FBF2F102FB11031B0132336D
:10392000B3FBF2F303EB0113EAE700BF0010014021
:10393000F8B504460E4617461D462268136836EA57
:10394000030301D1002028E06B1CF7D025B1FEF75E
:1039500005FCC01B8542F0D2226802F10C0353E83B
:10396000003F23F4D0730C3242E800302168002875
:10397000F2D101F1140353E8003F23F0010301F1F8
:10398000140040E80032002AF3D1202384F83D30AF
:1039900084F83C2084F83E300320F8BD10B504467E
:1039A00040B390F83D3003F0FF021BB980F83C2093
:1039B000FEF7B0FA2268242384F83D30D36823F45C
:1039C0000053D3602046FFF755FF23681A6922F49D
:1039D00090421A615A6922F02A025A61DA6842F466
:1039E0000052DA6000202023206484F83D3084F8FF
:1039F0003E3010BD0120FCE7F7B5174690F83D209A
:103A00000093202A04460E4649D1002945D0002FB4
:103A100043D090F83C20012A41D0012280F83C207C
:103A200000252122056480F83D20FEF797FBA16860
:103A3000009BA784B1F5805F0246E78403D121692A
:103A400009B935460E46002184F83C10E18C89B254
:103A500041B940212046FFF76BFF60B9202384F86D
:103A60003D3009E080212046CDE90023FFF760FFCB
:103A7000DDE9002310B1032003B0F0BD20684EB98A
:103A800035F8021BC1F308014160E18C013989B2AC
:103A9000E184DBE716F8011BF6E70120ECE70220E2
:103AA000EAE770477047704708B5806B0023C3850D
:103AB000C384FFF7F8FF08BD704707B58168836AC4
:103AC0000268B1F5805F3ED1016900293ED152689C
:103AD000C2F3080223F8022B8362C38D013B9BB221
:103AE000C385002B2CD10268D16821F02001D16060
:103AF000D16821F48071D160516921F001015161D7
:103B0000202280F83E20026B012A026828D103633C
:103B100002F10C0353E8003F23F0100302F10C0CF8
:103B20004CE800310029F3D11368DB0605D501917B
:103B30001368019353680193019B818DFFF7BCFFCC
:103B400003B05DF804FB39B9016929B95268D2B2F2
:103B50001A70836A0133BFE7526802F07F02F7E709
:103B6000FFF7A0FFECE70000036837B51A68D968D3
:103B70005D6912F00F0F04460CD1950670D58D06C5
:103B80006ED590F83E30222B64D103B0BDE83040B2
:103B9000FFF793BF05F0010001F4907505435FD076
:103BA000D50705D5CB0542BF236C43F00103236441
:103BB000550704D518B1236C43F00203236493071F
:103BC00004D518B1236C43F004032364150707D50B
:103BD00001F0200303431EBF236C43F0080323645A
:103BE000236C002B36D0900608D58A0606D594F8AB
:103BF0003E30222B02D12046FFF75FFF23685B692E
:103C0000256C03F0400305F008051D43204623D032
:103C1000FFF702FE226853695B0618D502F1140310
:103C200053E8003F23F0400302F1140040E8003164
:103C30000029F3D1A06B50B1724B0365FEF752FB24
:103C400040B1A06B036D03B0BDE83040184720467B
:103C5000FFF729FF03B030BDFFF725FF2564F9E723
:103C6000206B012840F09180D50640F18E80C80677
:103C700040F18B80002201921A6801925A680192E9
:103C8000019A5A6955064CD5A16B0A68526892B2DE
:103C9000002ADFD0A08D9042DCD9E285CA69B2F556
:103CA000807F36D003F10C0252E8002F22F480729C
:103CB00003F10C0040E800210029F3D103F11402C4
:103CC00052E8002F22F0010203F1140040E8002125
:103CD0000029F3D103F1140252E8002F22F0400230
:103CE00003F1140040E800210029F3D1202284F8D8
:103CF0003E20216303F10C0252E8002F22F0100253
:103D000003F10C0040E800210029F3D1A06BFEF77D
:103D1000A5FAE38DA18DC91A89B22046FFF7CCFE22
:103D200098E7E18D8AB2E18D89B2002992D0A18D08
:103D3000891A89B200298DD003F10C0252E8002FB4
:103D400022F4907203F10C0545E800200028F3D11D
:103D500003F1140252E8002F22F0010203F11405CE
:103D600045E800200028F3D1202284F83E2020637B
:103D700003F10C0252E8002F22F0100203F10C05AF
:103D800045E800200028F3D1C7E7100628D50D0626
:103D900026D594F83D20212A7FF45CAFA168226AE1
:103DA000B1F5805F17D12169A9B932F8021BC1F3BF
:103DB000080159602262E28C013A92B2E284002A40
:103DC0007FF448AFDA6822F08002DA60DA6842F005
:103DD0004002DA603EE7511C216212785A60EAE73D
:103DE00050067FF537AF4A067FF534AFDA6822F028
:103DF0004002DA60202384F83D302046FFF751FE70
:103E000028E700BFA93A0008014B1868704700BFB7
:103E10000C00002070B50D4D0D4C641BA410002645
:103E2000A64209D10B4D0C4C04F0A4FA641BA4105B
:103E30000026A64205D170BD55F8043B98470136CF
:103E4000EEE755F8043B98470136F2E7F094000896
:103E5000F0940008F0940008F4940008024403462B
:103E6000934200D1704703F8011BF9E72DE9FF47A2
:103E700055EC104B002D0E4619462B46BBBF05F1E5
:103E800000431D4600232D230B700D9BDDF830A051
:103E9000914623F02008BCBF22461446B8F1460FD5
:103EA00005D0B8F1450F00D10136022100E0032111
:103EB00003AB019302AB009345EC104B53463246E3
:103EC00000F0F2FCB8F1470F074602D119F0010FDC
:103ED00022D0B8F1460F07EB060910D13B78302B02
:103EE0000AD10022002320462946FCF7EDFD18B92F
:103EF000C6F10106CAF80060DAF8003099440022E1
:103F0000002320462946FCF7DFFD08B1CDF80C90D0
:103F10003022039B4B4507D3039B0E9ADB1B38468D
:103F2000136004B0BDE8F087591C03911A70F0E7E4
:103F3000F7B503460029B8BF494203F8022BB4BFC6
:103F40002D222B22092942702ADD0DF10704A446F7
:103F50000A27A6460A4691FBF7F607FB16153035E9
:103F6000632A04F1FF340EF8015C3146F1DC303194
:103F7000AEF1020504F8011C441C294661450AD330
:103F80000DF10902A2EB0E02654588BF0022134421
:103F9000181A03B0F0BD11F8012B04F8012FEDE75A
:103FA000302330318370C170031DF1E72DE9F04FEC
:103FB0002DED028B8DB00C46DDF8608016461F4655
:103FC000054601F05FFAD0F800A05046FCF700F972
:103FD00000230A9323680593D8F8003094F818B0AA
:103FE000073323F0070303F10802C8F80020D3E9E0
:103FF0000023C4E91223D4E9128929F0004307936E
:10400000CDF8188008EE100A9F4BDDE906014FF04D
:10401000FF32FCF78BFD88BBDDE906019A4B4FF0C0
:10402000FF32FCF765FD48BB0022002340464946AD
:10403000FCF754FD10B12D2384F84330934B944882
:10404000BBF1470F94BF9846804603232361059B2D
:1040500023F0040222604FF00009009733460BAAB8
:104060002146284600F0D8F9013040F090804FF00A
:10407000FF300DB0BDEC028BBDE8F08F42464B46E1
:1040800040464946FCF752FD40B14B46002BBCBFB1
:104090002D2384F843307F487F4BD1E763680BF0D2
:1040A000DF0206925A1C3FD106236360059B6168BC
:1040B00043F48062002303930AABCDE901B309AB5B
:1040C00049EC108B009322600DF123032846FFF783
:1040D000CDFE069B0999472B804608D1C81C02DB00
:1040E0006368994241DDABF1020B5FFA8BFBBBF1D8
:1040F000650F20D801395A4604F150000991FFF7A5
:1041000017FF0A9A1318012A8146236102DC2268EC
:10411000D20701D5013323619DF82330002B9CD0B9
:104120002D2384F8433098E7069A472ABED1002B06
:10413000BCD10123B9E7BBF1660F18D10029636830
:104140000BDD216113B92268D00702D501330B447E
:104150002361A1654FF00009DEE713B92268D20799
:1041600001D50233F4E70123F2E74FF0670B0A9B16
:10417000994205DB23682161D807EAD54B1CE7E7A4
:104180000029D4BFC1F1020201221344E0E72368F1
:104190005A0507D42369424631462846B8470130BC
:1041A0002CD164E7BBF1650F40F2E080D4E9120145
:1041B00000220023FCF788FC002834D0374A012372
:1041C00031462846B84701303FF451AFDDE90923B5
:1041D0009A4202DB2368D80710D518EE103A5246EF
:1041E00031462846B84701303FF441AF4FF0000850
:1041F00004F11A090A9B013B434509DC23689B072C
:1042000000F10581E0680B9B9842B8BF184630E783
:1042100001234A4631462846B84701303FF427AFCC
:1042200008F10108E6E7099B002B39DC1B4A012352
:1042300031462846B84701303FF419AFDDE909237C
:10424000134302D12368D907D8D518EE103A524645
:1042500031462846B84701303FF409AF4FF0000916
:1042600004F11A0A099B5B424B4501DC0A9B92E769
:104270000123524631462846B84701303FF4F7AE95
:1042800009F10109EEE700BFFFFFEF7FC48E0008D0
:10429000C88E0008D08E0008CC8E0008D48E00088E
:1042A0000A9AA36D9A42A8BF1A46002A914637DCA3
:1042B0004FF0000B29EAE97904F11A02A36D059386
:1042C000A3EB09035B4533DCDDE909239A423BDBC1
:1042D0002368DA0738D40A9B059A09999A1AA3EB3E
:1042E00001099145A8BF9146B9F1000F35DC4FF0A7
:1042F000000829EAE97904F11A0ADDE909239B1A81
:10430000A3EB090343457FF779AF012352463146BA
:104310002846B84701303FF4AAAE08F10108ECE79F
:104320001346314642462846B8470130C0D19EE682
:104330000123314628460592B84701303FF497AE35
:10434000059A0BF1010BB9E718EE103A52463146C7
:104350002846B8470130BED189E6059A4B4642440B
:1043600031462846B8470130C1D180E60A9A012A71
:1043700001DCDB0738D50123424631462846B847E1
:1043800001303FF474AE18EE103A524631462846DA
:10439000B84701303FF46BAED4E91201002200238C
:1043A000FCF792FBD8B90A9B08F10102013B3146A8
:1043B0002846B84701300ED159E60123524631460E
:1043C0002846B84701303FF452AE08F101080A9B75
:1043D000013B4345F1DC4B4604F15002DCE64FF073
:1043E000000804F11A0AF2E701234246DFE701233D
:1043F0004A4631462846B84701303FF438AE08F106
:104400000108E3680B995B1A4345F0DCFAE64FF0CC
:10441000000804F11909F4E72DE9F047164699461A
:104420008A680B69DDF820809342B8BF1346336079
:1044300091F8432007460C460AB1013333602368E4
:10444000990642BF336802333360256815F00605CC
:1044500006D104F1190AE36832689B1AAB4226DCE4
:1044600094F84320131E226818BF012392062BD410
:1044700004F1430249463846C04701301ED0236844
:10448000E568326803F00603042B08BFAD1AA36881
:1044900022690CBF25EAE57500259342C4BF9B1A2B
:1044A000ED1800261A34B5421AD1002008E0012385
:1044B000524649463846C047013003D14FF0FF30DD
:1044C000BDE8F0870135C6E7E1185A1C302081F8B5
:1044D0004300224494F8451082F843100233C7E7A2
:1044E0000123224649463846C0470130E6D001360E
:1044F000D9E700002DE9FF470F7E0C9D782F9146EC
:1045000080460C469A4601F1430207D8622F0AD82A
:10451000002F00F0D880582F00F0A38004F142054E
:1045200084F842703AE0A7F16303152BF6D801A195
:1045300051F823F08D450008A14500081D450008ED
:104540001D4500081D4500081D450008A14500083F
:104550001D4500081D4500081D4500081D450008B3
:10456000AD460008D14500088F4600081D450008EB
:104570001D450008CF4600081D450008D14500082C
:104580001D4500081D450008974600082B681A1DA8
:104590001B682A6004F1420584F842300123A3E03D
:1045A00020682968060601F104030AD50E682B600D
:1045B000002E03DA2D23764284F843305E480A2326
:1045C00019E00E682B6010F0400F18BF36B2EFE70D
:1045D0002B682068191D2960010601D51E6802E0BC
:1045E0004606FBD51E8854486F2F0CBF08230A23AC
:1045F000002184F843106568A560002DA2BF2168E2
:1046000021F0040121600EB9002D4DD01546B6FBF6
:10461000F3F103FB1167C75D05F8017D3746BB4227
:104620000E46F4D9082B0BD12368DE0708D5236981
:1046300061689942DEBF302305F8013C05F1FF3582
:10464000521B2261CDF800A04B4603AA21464046EA
:10465000FFF7E2FE01304CD14FF0FF3004B0BDE86F
:10466000F087354881F845702968236851F8046B54
:1046700029601D0614D5DF0744BF43F020032360E3
:104680001EB9236823F0200323601023B0E72368BA
:1046900043F0200323607823284884F84530E3E77B
:1046A000590648BFB6B2E6E71546BBE72B68266851
:1046B0006169181D286035061B6801D5196002E084
:1046C0007006FBD51980002323611546BAE72B68D5
:1046D0001A1D2A601D68626800212846FBF780FDCC
:1046E00008B1401B606063682361002384F8433095
:1046F000A8E723692A4649464046D0470130ABD057
:1047000023689B0713D4E068039B9842B8BF184600
:10471000A4E70123324649464046D04701309BD0AA
:104720000135E36803995B1AAB42F2DCEBE7002545
:1047300004F11906F5E700BFD68E0008E78E0008E1
:104740000EB400B59CB01DAB029006906FF0004116
:10475000094807910491094953F8042B0591006811
:10476000019302A901F07EFB029B00221A701CB08B
:104770005DF804EB03B070470C0000200802FFFF57
:10478000034611F8012B03F8012B002AF9D17047D9
:104790002DE9F74F03690C69A3420746C0F28180F7
:1047A000013C01F1140800F1140505EB84030193A9
:1047B00058F8243055F8242001339A424FEA840BEC
:1047C00008EB8409B2FBF3F631D34FF0000E4046FC
:1047D000AC46F24650F8042B93B206FB03E34FEAD3
:1047E000134E9BB2AAEB0303DCF800A0120C13FAE1
:1047F0008AF306FB02E20093009B4FEA124E92B24C
:10480000C2EB1A4202EB2342BDF80030814543EA75
:1048100002434CF8043B4FEA224ADBD255F80B30F6
:104820002BB9019B043B9D421A462ED33C6138466E
:1048300001F0C4F8002824DB013628464FF0000CB4
:1048400058F8042BD0F800E093B2ACEB0303120C41
:1048500013FA8EF3C2EB1E4202EB23429BB243EAF1
:104860000243C14540F8043B4FEA224CE8D255F8D8
:10487000242005EB840322B9043B9D421A460AD347
:104880003C61304603B0BDE8F08F1268043B002A5B
:10489000CCD1013CC7E71268043B002AF0D1013CAF
:1048A000EBE70020EEE700002DE9F04F2DED048B43
:1048B00057EC106B93B0456ADDF88080069110EEDE
:1048C00010AA044609920C93BB4675B9102000F05B
:1048D000DDFD0246606220B9A74BEA21A74801F03E
:1048E000D1FBC0E901550560C560636A196851B123
:1048F0005A684A60012393408B60204600F01CFEFA
:10490000636A00221A603B1EAABF002323F0004BFB
:10491000C8F800309A4BBCBF0122C8F8002033EA27
:104920000B031BD10C9A42F20F731360CBF31303EA
:10493000334300F09285219B63B9924B22E0924B66
:1049400001930833219A1360019813B0BDEC048BD6
:10495000BDE8F08F8B4B01930333F3E70022002374
:1049600050465946FCF7B0F84BEC19AB804658B1AD
:104970000C9A01231360219B002B00F06B85834868
:104980001860431E0193DFE74BEC10AB10AA11A98E
:10499000204601F0B9F8CBF30A5508EE100A002DB5
:1049A00000F0848019EE903AC3F3130343F07F576D
:1049B000564647F44017A5F2FF35CDF83880744BC2
:1049C000002230463946FBF75FFC65A3D3E900239C
:1049D000FBF712FE64A3D3E90023FBF757FC06465E
:1049E00028460F46FBF79EFD61A3D3E90023FBF7A2
:1049F00003FE02460B4630463946FBF747FC0646A7
:104A00000F46FCF7A9F800220090002330463946F3
:104A1000FCF764F850B10098FBF784FD32463B4642
:104A2000FCF752F810B9009B013B0093009B162B3A
:104A30005AD8009A574B03EBC203D3E9002351EC39
:104A4000190BFCF74BF8002850D0009B013B00935A
:104A500000230B93109B5D1B6B1E059345BFC5F197
:104A600001030493002300234CBF05930493009B90
:104A7000002B3DDB059B009A0A921344059300230B
:104A80000793069B092B00F28980052BC4BF043BCA
:104A90000693069BA3F10203CCBF00250125032B3F
:104AA00000F28780DFE803F02D3A3859DDE9105332
:104AB0001D4405F23243202BC1BFC3F1400305F270
:104AC00012400BFA03F326FA00F0DABFC3F1200319
:104AD00006FA03F01843FBF715FD01230646A1F182
:104AE000F877013D0E936AE70123B2E70B90B1E737
:104AF000049B009A9B1A04935342079300230A9342
:104B0000BFE700230893099B002B55DC0123CDE967
:104B100002331A4609920CE00123F3E70023099AB5
:104B20000893009B134402930133012B0393B8BFF6
:104B30000123606A00224260042202F114069E42B0
:104B400041683DD9204600F0B7FC019000283BD1D8
:104B5000114B02464FF4D571C0E60123DFE700BFD9
:104B600061436F63A787D23FB3C8608B288AC63F73
:104B7000FB799F501344D33F058F00081C8F00081A
:104B80000000F07F018F0008F88E0008D58E000825
:104B90000000F83F10900008778F000801250023DF
:104BA000069308954FF0FF33CDE90233002212231C
:104BB000B0E701230893F5E7099BCDE90233B8E795
:104BC000013141605200B8E7636A019A1A60039BA1
:104BD0000E2B00F29D80002D00F09A80009B002B90
:104BE00032DDB74A03F00F0302EBC303D3E90089B8
:104BF000009BD8054FEA231716D5B24B51EC190B81
:104C0000D3E90823FBF722FE07F00F0782468B4605
:104C10000325AC4E57B942464B4650465946FBF722
:104C200015FE82468B4628E00225F2E7F90708D5F3
:104C300040464946D6E90023FBF7DEFC01358046B5
:104C400089467F100836E5E700F09B80009B9D4F6A
:104C50005E429B4B06F00F0203EBC203D3E9002335
:104C600051EC190BFBF7C8FC361182468B4600232A
:104C70000225002E7AD1002BD3D10B9B002B00F004
:104C80008280914B002250465946FBF727FF0028AF
:104C900079D0039B002B76D0029B002B36DD009B46
:104CA000504659465F1E0022884BFBF7A5FC029E2A
:104CB00082468B4601352846FBF734FC52465B465C
:104CC000FBF79AFC824B0022FBF7E0FAD046D9466C
:104CD0008246A1F1507B002E58D17E4B00224046E7
:104CE0004946FBF7D1FA52465B4680468946FBF7B8
:104CF00013FF002840F0958252460BF100434046D6
:104D00004946FBF7EBFE002840F089825BEC19ABCB
:104D1000119B002BC0F24881009A0E2A00F34481B7
:104D2000674B03EBC203D3E90089099B002B80F298
:104D3000D580039B002B00F3D18040F06F82654B40
:104D4000002240464946FBF757FC52465B46FBF7BC
:104D5000D9FE039E3746002840F04582019D31234D
:104D600005F8013B009B0133009340E2F20705D5B3
:104D7000D7E90023FBF740FC013501237610083703
:104D800077E7022579E7009F039E94E701994C4B52
:104D900031440D91089903EBC60353E9022300291E
:104DA00043D04D490020FBF751FD52465B46FBF7CF
:104DB0006BFA019D82468B4649464046FBF7CCFE86
:104DC0000646FBF7AFFB02460B4640464946FBF75B
:104DD0005BFA303605F8016B52465B4680468946E1
:104DE000FBF77CFE002863D142464B463649002043
:104DF000FBF74AFA52465B46FBF770FE002840F08C
:104E0000B5800D9B9D4281D0304B002250465946C3
:104E1000FBF7F2FB2D4B82468B464046494600226B
:104E2000FBF7EAFB80468946C6E750465946FBF742
:104E3000E3FB0D9B019D0F9382468B4649464046FE
:104E4000FBF78AFE0646FBF76DFB303602460B4643
:104E500040464946FBF718FA05F8016B0D9B9D4249
:104E6000804689464FF0000224D11B4B50465946DC
:104E7000FBF70CFA02460B4640464946FBF74CFE50
:104E8000002873D152465B4613490020FBF7FCF91A
:104E900002460B4640464946FBF720FE00283FF4F9
:104EA00035AF0F9D6B1E0F9315F8013C302BF8D0DA
:104EB000009749E0054BFBF79FFB80468946BDE71D
:104EC00010900008E88F00080000F03F0000244028
:104ED00000001C40000014400000E03F019D5646C9
:104EE0005F4642464B4630463946FBF7AFFCFBF780
:104EF00033FE8246FBF716FB42464B46FBF77CFB34
:104F000002460B46304639460AF13006FBF7BCF93B
:104F100005F8016B019E039FAE1BB74202460B468C
:104F200035D1FBF7B3F942464B4606460F46FBF731
:104F3000F3FDD0B942464B4630463946FBF7C4FD37
:104F400010B11AF0010F10D1204618EE101A00F01F
:104F5000F3FA002300982B700C9B01301860219B02
:104F6000002B3FF4F1AC1D60EEE4009F2B461D4684
:104F700013F8012D392A06D1019A9A42F7D10199E5
:104F8000302201370A701A7801321A7090E7A64B66
:104F90000022FBF731FB0022002306460F46FBF7F9
:104FA00093FD00289DD0CFE7089A002A00F0D78013
:104FB000069A012A00F3BA800E9A002A00F0B28005
:104FC00003F23343079E049D049A1A440492059AFF
:104FD00001211A442046059200F066FB0746002D89
:104FE0000CDD059B002B09DDAB42049AA8BF2B46C4
:104FF000D21A0492059AED1AD31A0593079B1BB394
:10500000089B002B00F0AF80002E13DD394632469E
:10501000204600F009FC18EE102A014607462046FB
:1050200000F058FB18EE101A8046204600F084FA73
:1050300008EE108A079B9A1B06D018EE101A20461D
:1050400000F0F2FB08EE100A0121204600F02CFBD4
:105050000A9B002B064640F388801A4601462046EC
:1050600000F0E2FB069B012B064640F381804FF0E7
:105070000008336906EB8303186900F0C5FAC0F134
:105080002000059B184410F01F0000F09280C0F132
:105090002003042B40F38A80C0F11C00049B0344CE
:1050A0000493059B034405440593049B002B07DDF3
:1050B00018EE101A1A46204600F010FC08EE100AEE
:1050C000059B002B05DD31461A46204600F006FC04
:1050D00006460B9B002B6ED018EE100A314600F0EE
:1050E0006DFC002867DA009B013B18EE101A009354
:1050F0000A220023204600F041FA089B08EE100A1D
:10510000002B00F0B181002339460A22204600F02E
:1051100035FA029B002B074600F38E80069B022B7C
:1051200051DC89E0109BC3F136034BE7039B5E1E05
:10513000079BB342BFBF079B0796F21A0A9BB6BFF5
:105140009B189E1B0A93039BB8BF0026002BB7BF7A
:10515000DDE90323DDE903359D1A002334E7079ECB
:10516000049D089F3BE7079A67E7069B012B18DC25
:10517000BAF1000F15D1CBF3130393B92BF0004311
:105180001B0D1B0583B1049B01330493059B013365
:1051900005934FF001080A9B002B7FF46AAF0120B2
:1051A0006FE74FF00008F6E79846F4E73FF47DAF6D
:1051B00018461C3072E7039B002B37DC069B022B42
:1051C00034DD039B0293029B6BB9314605222046D6
:1051D00000F0D4F90146064618EE100A00F0EEFB86
:1051E00000283FF7BBAD099B019DDB4300934FF0C7
:1051F00000083146204600F09FF9002F3FF4A4AE8E
:10520000B8F1000F05D0B84503D04146204600F064
:1052100093F93946204600F08FF995E60026374687
:10522000E1E70097374699E500002440089B002BF2
:1052300000F0CA80039B0293002D05DD39462A4603
:10524000204600F04BFB0746B8F1000F5BD07968B1
:10525000204600F031F9054628B9874B024640F256
:10526000EA21FFF73BBB3A690232920007F10C01D9
:105270000C3000F013F901222946204600F02EFBE5
:10528000019B03F10109DDE90123134405930AF0B1
:105290000103B84604930746314618EE100AFFF79B
:1052A00077FA4146029000F1300A18EE100A00F039
:1052B00085FB3A4603903146204600F09BFBC268CE
:1052C00009F1FF3B054602BB014618EE100A00F04B
:1052D00075FB024629462046079200F02DF9DDE9CC
:1052E000063243EA0201049B0B434D460FD1BAF14B
:1052F000390F2AD0039B002B02DD029B03F1310AF8
:105300008BF800A075E73846BAE70122E2E7039B75
:10531000002B04DB06990B4304990B4322D1002A8E
:10532000EEDD18EE101A0122204600F0D7FA3146C1
:1053300008EE100A00F042FB002803DCE0D11AF06E
:10534000010FDDD0BAF1390FD7D139238BF80030F6
:105350002B461D46013B15F8012C392A71D001322C
:105360001A7046E7002A07DDBAF1390FEDD00AF1CD
:1053700001038BF800303CE7059B09F801AC994527
:1053800047D018EE101A00230A22204600F0F6F843
:10539000B84508EE100A4FF000034FF00A024146EC
:1053A000204606D100F0EAF88046074609F10109D7
:1053B00072E700F0E3F83946804600230A222046CF
:1053C00000F0DCF80746F1E7039B0293019D18EE1D
:1053D000100A3146FFF7DCF900F1300A019B05F8AD
:1053E00001ABEA1A029B934209DD18EE101A002362
:1053F0000A22204600F0C2F808EE100AE7E7029BF6
:10540000002BC8BF1D46019BD8BF01251D444FF08E
:10541000000818EE101A0122204600F05FFA31460B
:1054200008EE100A00F0CAFA002891DC02D11AF046
:10543000010F8DD12B461D4613F8012D302AFAD0CD
:10544000D7E6019A9A4284D1009B0133009331231D
:105450001370CEE6094BFFF795BA219B002B7FF422
:105460006EAA074BFFF78EBA029B002BAEDC069BA1
:10547000022B3FF7A8AEA9E7778F0008D48E00086B
:10548000F88E00080048704760010020024B01467A
:10549000186800F017BC00BF0C0000200A449142BD
:1054A00000F1FF3300D1704710B511F8014B03F83C
:1054B000014F9142F9D110BD70B5466A04460D46C0
:1054C00076B91020FFF7E2FF0246606220B9184B60
:1054D0001848662100F0D6FDC0E901660660C66086
:1054E000666AF36883B1636ADB6853F82500B8B96C
:1054F000012101FA05F6721D9200204600F060FBC2
:1055000060B1C0E901560EE021220421204600F0DE
:1055100057FB636AF060DB68002BE4D1002070BDAC
:10552000026843F825200023C0E90333F7E700BFF2
:10553000058F0008888F000870B5466A05460C463E
:1055400076B91020FFF7A2FF0246686220B9094B26
:1055500009488A2100F096FDC0E901660660C66030
:105560003CB16B6A6268DB6853F82210216043F833
:10557000224070BD058F0008888F00082DE9F0419A
:105580000D6907460C461E4601F1140C0020DCF89C
:10559000003099B202FB01611E0C0B0C02FB0633BA
:1055A00089B2013001EB034185424CF8041B4FEAFC
:1055B0001346ECDC0EB3A368AB4219DC61683846D5
:1055C0000131FFF779FF804628B902460C4B0D48A0
:1055D000B52100F057FD2269023204F10C0192005E
:1055E0000C30FFF75BFF21463846FFF7A5FF444626
:1055F00004EB850301355E6125612046BDE8F0813D
:10560000778F0008888F0008030C1B04D3B90004AF
:10561000102310F07F4F04BF0002083310F0704FCA
:1056200004BF0001043310F0404F04BF8000023378
:10563000002805DB10F0804F03F1010308BF202391
:10564000184670470023E4E7036813F00702014699
:105650000BD0DA0723D4980749BF5B089B080120C9
:105660000B605CBF0B600220704798B2A8B91B0C9E
:105670001020DAB20AB908301B0A1A0704BF1B0946
:1056800004309A0704BF9B080230DA0703D45B0892
:1056900000F1010005D00B6070471046E9E70020DB
:1056A000704720207047000010B50C460121FFF71D
:1056B00003FF024628B9054B05484FF4A07100F0DE
:1056C000E1FC01234461036110BD00BF778F000836
:1056D000888F00082DE9F04F91460A69D9F81030FB
:1056E0009A42B8BF0B460C46BCBF4C469946276948
:1056F000D9F810A0A368616807EB0A06B34285B029
:10570000B8BF0131FFF7D8FE30B90246444B4548D7
:1057100040F25D1100F0B6FC00F1140505EB8608BF
:105720002B460022434521D304F1140303EB8707E2
:1057300009F1140303EB8A0202923A1B153A22F094
:105740000302043204F115018F4238BF0422019292
:10575000029A03939A420CD8002E03DD58F8043DB8
:10576000002B5AD0066105B0BDE8F08F43F8042B3A
:10577000D8E7B3F800A0BAF1000F24D004F1140E5A
:10578000A9464FF0000C5EF8042BD9F800101FFA60
:1057900082FB89B20AFB0B114FEA124BD9F80020A9
:1057A00061444FEA124C0AFB0BC202EB114289B270
:1057B00041EA0241774549F8041B4FEA124CE2D80E
:1057C000019A45F802C0039AB2F802900433B9F185
:1057D000000F20D0296804F1140CAE464FF0000AE7
:1057E000BCF800B0BEF8022009FB0B22924489B23B
:1057F00041EA0A414EF8041B5CF8042BBEF8001085
:10580000120C09FB021101EB1A4167454FEA114ADC
:10581000E6D8019AA95004359AE7013E9CE700BFFB
:10582000778F0008888F00082DE9F843154612F09D
:10583000030206460F4607D0254C013A002354F8D0
:105840002220FFF79BFE0746AD103DD0746A7CB95D
:105850001020FFF71BFE0246706228B91D4B1E4840
:105860004FF4D77100F00EFCC0E901440460C4603D
:10587000D6F82480D8F808404CB940F2712130465F
:10588000FFF712FF0023C8F80800044603604FF03A
:105890000009EB070AD5394622463046FFF71AFFC2
:1058A000394680463046FFF747FE47466D100BD01D
:1058B000206838B9224621463046FFF70BFF2060AA
:1058C000C0F800900446E4E73846BDE8F88300BF1E
:1058D000D8900008058F0008888F00082DE9F04750
:1058E0000C464968236903EB6218A3680746914692
:1058F0004FEA621A08F10106B3420BDB3846FFF7A4
:10590000DBFD054648B902462A4B2B4840F2D91127
:1059100000F0B8FB01315B00EEE7002300F1140159
:1059200000F110021846534537DB20692AEAEA7A6B
:1059300004F1140319F01F0901EB8A0103EB800045
:105940002FD0C9F1200E8A464FF0000C1A6802FAD7
:1059500009F242EA0C024AF8042B53F8042B98424D
:1059600022FA0EFCF2D8031B153B23F00303043389
:1059700004F11502904238BF042341F803C0BCF182
:10598000000F01D008F10206013E38462E61214683
:10599000FFF7D2FD2846BDE8F08742F8040F013337
:1059A000C1E7043953F8042B41F8042F9842F9D881
:1059B000EAE700BF778F0008888F000830B50269DA
:1059C0000C69121B0ED100F11403143103EB840097
:1059D00001EB840150F8045D51F8044DA54203D059
:1059E00005D30122104630BD8342F3D3FAE74FF0CE
:1059F000FF32F7E72DE9F84F0C46064611462046E0
:105A00009046FFF7DBFF051E10D129463046FFF711
:105A100053FD30B93A4B024640F23221394800F08A
:105A200031FB0123C0E90435BDE8F88FA4BF43462C
:105A3000A0463046D8F80410A6BF1C460025012514
:105A4000FFF73AFD20B92E4B02464FF41071E5E7FF
:105A5000D8F810702669C56004F1140908F114051E
:105A600000F1140E05EB870C09EB860608F1100215
:105A7000F246002159F8043B52F804BF1FFA83F89C
:105A800011FA8BF11B0CA1EB0808C3EB1B4303EBD2
:105A900028431FFA88F819144E4548EA03434AF888
:105AA000043BE7D8331B153B23F0030304331534C1
:105AB000A64238BF04231D4473449E462E466645C5
:105AC0000ED30CF10302521B22F00302033DAC453E
:105AD00038BF00221A4452F8043D7BB10761A3E7A6
