:020000040800F2
:1000000000000220F9220008ED210008F321000879
:10001000F9210008FF210008052200080000000067
:100020000000000000000000000000000B2200089B
:1000300019220008000000002722000835220008CD
:1000400049230008492300084923000849230008E0
:1000500049230008492300084923000849230008D0
:1000600049230008492300084923000849230008C0
:1000700041220008492300084923000849230008B9
:1000800049230008492300084923000849230008A0
:100090004923000849230008492300084923000890
:1000A0004923000849230008492300084923000880
:1000B0004923000849230008492300084923000870
:1000C0004923000849230008492300084923000860
:1000D0004923000849230008492300085522000845
:1000E0004923000849230008492300084923000840
:1000F0004923000849230008492300084923000830
:10010000492300084923000849230008492300081F
:10011000492300084923000849230008492300080F
:1001200049230008492300084923000849230008FF
:1001300049230008492300084923000849230008EF
:1001400049230008492300084923000849230008DF
:1001500049230008492300084923000849230008CF
:1001600049230008492300084923000849230008BF
:100170004923000849230008492300080000000023
:0801800049230008492300088F
:1001900010B5054C237833B9044B13B10448AFF3C1
:1001A00000800123237010BD7000002000000000BB
:1001B000C86F000808B5034B1BB103490348AFF3F0
:1001C000008008BD0000000074000020C86F000817
:1001D000034613F8012B002AFBD1181A0138704787
:1001E00001F0FF01102A2BDB10F0070F08D010F8E8
:1001F000013B013A8B422DD010F0070F42B3F6D1EC
:10020000F0B441EA012141EA014122F007047FF004
:1002100000070023F0E80256083C85EA010586EA5B
:10022000010685FA47F5A3FA87F586FA47F6A5FA97
:1002300087F68EB9EED1F0BC01F0FF0102F00702A3
:1002400032B110F8013B013A83EA010313B1F8D14E
:100250000020704701387047002D06BF354603382F
:10026000073815F0010F07D1013015F4807F02BF68
:10027000013015F4C03F0130F0BC0138704700BFB9
:1002800081F0004102E000BF83F0004330B54FEA47
:1002900041044FEA430594EA050F08BF90EA020FB4
:1002A0001FBF54EA000C55EA020C7FEA645C7FEA47
:1002B000655C00F0E2804FEA5454D4EB5555B8BF6A
:1002C0006D420CDD2C4480EA020281EA030382EADB
:1002D000000083EA010180EA020281EA0303362D6D
:1002E00088BF30BD11F0004F4FEA01314FF4801C40
:1002F0004CEA113102D0404261EB410113F0004F52
:100300004FEA03334CEA133302D0524263EB430308
:1003100094EA050F00F0A780A4F10104D5F1200EA6
:100320000DDB02FA0EFC22FA05F2801841F1000101
:1003300003FA0EF2801843FA05F359410EE0A5F1D5
:1003400020050EF1200E012A03FA0EFC28BF4CF006
:10035000020C43FA05F3C01851EBE37101F00045BC
:1003600007D54FF0000EDCF1000C7EEB00006EEBC9
:100370000101B1F5801F1BD3B1F5001F0CD3490853
:100380005FEA30004FEA3C0C04F101044FEA4452AA
:1003900012F5800F80F09A80BCF1004F08BF5FEA31
:1003A000500C50F1000041EB045141EA050130BD11
:1003B0005FEA4C0C404141EB0101013C28BFB1F523
:1003C000801FE9D291F0000F04BF01460020B1FA6E
:1003D00081F308BF2033A3F10B03B3F120020CDA41
:1003E0000C3208DD02F1140CC2F10C0201FA0CF01F
:1003F00021FA02F10CE002F11402D8BFC2F1200C84
:1004000001FA02F120FA0CFCDCBF41EA0C01904039
:10041000E41AA2BF01EB0451294330BD6FEA040482
:100420001F3C1CDA0C340EDC04F11404C4F120026D
:1004300020FA04F001FA02F340EA030021FA04F37F
:1004400045EA030130BDC4F10C04C4F1200220FAD6
:1004500002F001FA04F340EA0300294630BD21FA14
:1004600004F0294630BD94F0000F83F4801306BFDA
:1004700081F480110134013D4EE77FEA645C18BFCE
:100480007FEA655C29D094EA050F08BF90EA020F65
:1004900005D054EA000C04BF1946104630BD91EA5D
:1004A000030F1EBF0021002030BD5FEA545C05D160
:1004B0004000494128BF41F0004130BD14F580049F
:1004C0003CBF01F5801130BD01F0004545F0FE4113
:1004D00041F470014FF0000030BD7FEA645C1ABF48
:1004E000194610467FEA655C1CBF0B46024650EA7F
:1004F000013406BF52EA033591EA030F41F40021AB
:1005000030BD00BF90F0000F04BF0021704730B530
:100510004FF4806404F132044FF000054FF0000105
:1005200050E700BF90F0000F04BF0021704730B5C6
:100530004FF4806404F1320410F0004548BF40429B
:100540004FF000013EE700BF42004FEAE2014FEAF0
:1005500031014FEA02701FBF12F07F4393F07F4FCB
:1005600081F06051704732F07F4208BF704793F0CE
:100570007F4F04BF41F40021704730B54FF46074E1
:1005800001F0004521F000411CE700BF50EA0102E4
:1005900008BF704730B54FF000050AE050EA01028D
:1005A00008BF704730B511F0004502D5404261EBFD
:1005B00041014FF4806404F132045FEA915C3FF43E
:1005C000D8AE4FF003025FEADC0C18BF03325FEADB
:1005D000DC0C18BF033202EBDC02C2F1200300FA8C
:1005E00003FC20FA02F001FA03FE40EA0E0021FAB1
:1005F00002F11444BDE600BF70B54FF0FF0C4CF49F
:10060000E06C1CEA11541DBF1CEA135594EA0C0F50
:1006100095EA0C0F00F0DEF82C4481EA030621EA8B
:100620004C5123EA4C5350EA013518BF52EA0335C6
:1006300041F4801143F4801338D0A0FB02CE4FF078
:100640000005E1FB02E506F00042E0FB03E54FF0A8
:100650000006E1FB03569CF0000F18BF4EF0010EA0
:10066000A4F1FF04B6F5007F64F5407404D25FEA9C
:100670004E0E6D4146EB060642EAC62141EA55514F
:100680004FEAC52040EA5E504FEACE2EB4F1FD0C91
:1006900088BFBCF5E06F1ED8BEF1004F08BF5FEA0F
:1006A000500E50F1000041EB045170BD06F00046C1
:1006B00046EA010140EA020081EA0301B4EB5C046E
:1006C000C2BFD4EB0C0541EA045170BD41F4801166
:1006D0004FF0000E013C00F3AB8014F1360FDEBF8B
:1006E000002001F0004170BDC4F10004203C35DA67
:1006F0000C341BDC04F11404C4F1200500FA05F3EA
:1007000020FA04F001FA05F240EA020001F000428A
:1007100021F0004110EBD37021FA04F642EB060100
:100720005EEA430E08BF20EAD37070BDC4F10C042A
:10073000C4F1200500FA04F320FA05F001FA04F2EE
:1007400040EA020001F0004110EBD37041F10001DA
:100750005EEA430E08BF20EAD37070BDC4F12005E5
:1007600000FA05F24EEA020E20FA04F301FA05F24D
:1007700043EA020321FA04F001F0004121FA04F2F5
:1007800020EA020000EBD3705EEA430E08BF20EAC5
:10079000D37070BD94F0000F0FD101F000464000FF
:1007A00041EB010111F4801F08BF013CF7D041EA81
:1007B000060195F0000F18BF704703F00046520085
:1007C00043EB030313F4801F08BF013DF7D043EA56
:1007D0000603704794EA0C0F0CEA135518BF95EA0C
:1007E0000C0F0CD050EA410618BF52EA4306D1D193
:1007F00081EA030101F000414FF0000070BD50EAB2
:10080000410606BF1046194652EA430619D094EA3B
:100810000C0F02D150EA013613D195EA0C0F05D125
:1008200052EA03361CBF104619460AD181EA030179
:1008300001F0004141F0FE4141F470014FF0000031
:1008400070BD41F0FE4141F4780170BD70B54FF0CC
:10085000FF0C4CF4E06C1CEA11541DBF1CEA13554C
:1008600094EA0C0F95EA0C0F00F0A7F8A4EB05042E
:1008700081EA030E52EA03354FEA013100F0888025
:100880004FEA03334FF0805545EA131343EA1263EE
:100890004FEA022245EA111545EA10654FEA0026A3
:1008A0000EF000419D4208BF964244F1FD0404F55C
:1008B000407402D25B084FEA3202B61A65EB0305B8
:1008C0005B084FEA32024FF480104FF4002CB6EB75
:1008D000020E75EB030E22BFB61A754640EA0C00F5
:1008E0005B084FEA3202B6EB020E75EB030E22BF35
:1008F000B61A754640EA5C005B084FEA3202B6EB76
:10090000020E75EB030E22BFB61A754640EA9C0034
:100910005B084FEA3202B6EB020E75EB030E22BF04
:10092000B61A754640EADC0055EA060E18D04FEAC2
:10093000051545EA16754FEA06164FEAC30343EA62
:1009400052734FEAC2025FEA1C1CC0D111F4801F2F
:100950000BD141EA00014FF000004FF0004CB6E728
:1009600011F4801F04BF01430020B4F1FD0C88BFC7
:10097000BCF5E06F3FF6AFAEB5EB030C04BFB6EBD2
:10098000020C5FEA500C50F1000041EB045170BDC5
:100990000EF0004E4EEA113114EB5C04C2BFD4EBF2
:1009A0000C0541EA045170BD41F480114FF0000E76
:1009B000013C90E645EA060E8DE60CEA135594EAF2
:1009C0000C0F08BF95EA0C0F3FF43BAF94EA0C0FF5
:1009D0000AD150EA01347FF434AF95EA0C0F7FF46A
:1009E00025AF104619462CE795EA0C0F06D152EABE
:1009F00003353FF4FDAE1046194622E750EA4106A2
:100A000018BF52EA43067FF4C5AE50EA41047FF4B2
:100A10000DAF52EA43057FF4EBAE12E74FEA410215
:100A2000B2F1E04324BFB3F5001CDCF1FE5C0DD94C
:100A300001F0004C4FEAC0024CEA5070B2F1004F96
:100A400040EB830008BF20F00100704711F0804F99
:100A500021D113F13872BCBF01F00040704741F45E
:100A600080114FEA5252C2F11802C2F1200C10FA62
:100A70000CF320FA02F018BF40F001004FEAC12346
:100A80004FEAD32303FA0CFC40EA0C0023FA02F3EA
:100A90004FEA4303CCE77FEA625307D150EA0133C0
:100AA0001EBF4FF0FE4040F44000704701F0004090
:100AB00040F0FE4040F40000704700BF53B94AB90F
:100AC000002908BF00281CBF4FF0FF314FF0FF3056
:100AD00000F074B9ADF1080C6DE904CE00F006F831
:100AE000DDF804E0DDE9022304B070472DE9F047AA
:100AF000089D04468E46002B4DD18A42944669D902
:100B0000B2FA82F252B101FA02F3C2F1200120FAE4
:100B100001F10CFA02FC41EA030E94404FEA1C4832
:100B2000210CBEFBF8F61FFA8CF708FB16E341EA2E
:100B3000034306FB07F199420AD91CEB030306F1B4
:100B4000FF3080F01F81994240F21C81023E6344D5
:100B50005B1AA4B2B3FBF8F008FB103344EA034479
:100B600000FB07F7A7420AD91CEB040400F1FF338E
:100B700080F00A81A74240F207816444023840EACB
:100B80000640E41B00261DB1D4400023C5E9004304
:100B90003146BDE8F0878B4209D9002D00F0EF8087
:100BA0000026C5E9000130463146BDE8F087B3FABA
:100BB00083F6002E4AD18B4202D3824200F2F980A2
:100BC000841A61EB030301209E46002DE0D0C5E9A5
:100BD000004EDDE702B9FFDEB2FA82F2002A40F0F1
:100BE0009280A1EB0C014FEA1C471FFA8CFE0126F4
:100BF000200CB1FBF7F307FB131140EA01410EFB98
:100C000003F0884208D91CEB010103F1FF3802D23E
:100C1000884200F2CB804346091AA4B2B1FBF7F038
:100C200007FB101144EA01440EFB00FEA64508D95B
:100C30001CEB040400F1FF3102D2A64500F2BB8098
:100C40000846A4EB0E0440EA03409CE7C6F12007E7
:100C5000B34022FA07FC4CEA030C20FA07F401FA2D
:100C600006F31C43F9404FEA1C4900FA06F3B1FBB6
:100C7000F9F8200C1FFA8CFE09FB181140EA01411B
:100C800008FB0EF0884202FA06F20BD91CEB0101B8
:100C900008F1FF3A80F08880884240F28580A8F110
:100CA00002086144091AA4B2B1FBF9F009FB101162
:100CB00044EA014100FB0EFE8E4508D91CEB010100
:100CC00000F1FF346CD28E456AD90238614440EAA3
:100CD0000840A0FB0294A1EB0E01A142C846A64623
:100CE00056D353D05DB1B3EB080261EB0E0101FAAC
:100CF00007F722FA06F3F1401F43C5E90071002609
:100D00003146BDE8F087C2F12003D8400CFA02FC5E
:100D100021FA03F3914001434FEA1C471FFA8CFE6E
:100D2000B3FBF7F007FB10360B0C43EA064300FB5E
:100D30000EF69E4204FA02F408D91CEB030300F1FC
:100D4000FF382FD29E422DD9023863449B1B89B2B3
:100D5000B3FBF7F607FB163341EA034106FB0EF33C
:100D60008B4208D91CEB010106F1FF3816D28B42E9
:100D700014D9023E6144C91A46EA004638E72E46B5
:100D8000284605E70646E3E61846F8E64B45A9D2AD
:100D9000B9EB020864EB0C0E0138A3E74646EAE71C
:100DA000204694E74046D1E7D0467BE7023B6144CA
:100DB00032E7304609E76444023842E7704700BF33
:100DC000B0B58CB000AFF860B9607A60AD4B07F198
:100DD00018041D460FCD0FC42B68237007F129039B
:100DE00000221A809A70FB68BA681A60FB687A68F9
:100DF0005A6000227F21F86800F0BAF903461A46CB
:100E0000A14B1A70A04B1B78002B07D007F11803D9
:100E10009E4A07CA03C31A8000239AE1002107F102
:100E200017031A46F86800F0C3F903461A46964BB2
:100E30001A70954B1B78002B07D007F11803944AC2
:100E400007CA03C31A80002383E1FB7D1A4607F11A
:100E50002C039049184605F041FC07F12C0207F1DC
:100E600018031146184605F059FC3B7E203BDBB2C7
:100E700087F824307B7E203BDBB287F825300D23BA
:100E800087F826300A2387F82730002387F8283090
:100E90000D233B760A237B764923BB76FB685C688F
:100EA00007F118031846FFF793F903469AB207F1C2
:100EB00018014FF0FF33204604F017FC00227F2179
:100EC000F86800F055F903461A466F4B1A706E4BDE
:100ED0001B78002B07D007F118036F4A07CA03C31A
:100EE0001A80002335E1F1220621F86800F040F96C
:100EF00003461A46644B1A70634B1B78002B0AD0CA
:100F000007F11803654A07CA03C31A800233120C9B
:100F10001A7000231DE10A2001F08AFA012206213D
:100F2000F86800F025F903461A46574B1A70564BDD
:100F30001B78002B0AD007F11803594A07CA03C3CC
:100F40001A800233120C1A70002302E10A2001F009
:100F50006FFA3F220721F86800F00AF903461A46A3
:100F6000494B1A70484B1B78002B0AD007F1180325
:100F70004C4A07CA03C31A800233120C1A700023AA
:100F8000E7E00A2001F054FA00220721F86800F097
:100F9000EFF803461A463C4B1A703B4B1B78002B6C
:100FA0000AD007F11803404A07CA03C31A80023364
:100FB000120C1A700023CCE001221021F86800F016
:100FC000D7F803461A46304B1A7020227F21F86862
:100FD00000F0CEF803461A462B4B1A702A4B1B78AA
:100FE000002B07D007F11803304A07CA03C31A8041
:100FF0000023AEE004220021F86800F0B9F80346AF
:101000001A46214B1A70204B1B78002B07D007F192
:101010001803274A07CA03C31A80002399E0332222
:101020000121F86800F0A4F803461A46164B1A701E
:10103000154B1B78002B07D007F118031D4A07CA70
:1010400003C31A80002384E007221121F86800F00E
:101050008FF803461A460C4B1A7000221021F868CC
:1010600000F086F803461A46074B1A70064B1B78A9
:10107000002B23D007F118030F4A07CA03C31A80B5
:10108000002366E0807000088C000020E06F0008FC
:10109000EC6F0008F86F0008FC6F0008087000088B
:1010A00014700008207000082C70000838700008C8
:1010B00044700008507000085C7000083122142150
:1010C000F86800F055F803461A46244B1A70234B73
:1010D0001B78002B0AD007F11803214A07CA03C363
:1010E0001A800233120C1A70002332E000225321BE
:1010F000F86800F03DF800227F21F86800F038F829
:1011000003461A46154B1A70144B1B78002B0AD055
:1011100007F11803134A07CA03C31A800233120CDB
:101120001A70002315E0642001F082F90E4B0022B2
:101130001A600D4B00225A600B4B00229A600B4B39
:1011400000221A60094B00225A60084B00229A6064
:10115000002318463037BD46B0BD00BF8C000020CC
:10116000687000087470000894000020A00000203F
:1011700080B588B004AF78600B46FB701346BB7037
:10118000BB78FB737B681868D02399B2FB789AB25E
:101190004FF0FF3302930123019307F10F030093F4
:1011A000012302F0F1F8034618461037BD4680BD12
:1011B00080B588B004AFF8600B467A60FB72FB68BC
:1011C0001868D02399B2FB7A9AB24FF0FF3302939A
:1011D000012301937B680093012302F0CFF90346BA
:1011E0001A46044B1A70034B1B7818461037BD463D
:1011F00080BD00BF8C000020B0B58CB000AF78601F
:101200000023BB810023FB610023BB6107F10C03BA
:101210001A4638217868FFF7CBFF03461A467B4B06
:101220001A7007F10C0301331A4637217868FFF76B
:10123000BFFF03461A46754B1A70754B1B68002B8F
:1012400006D101F0E9F80346714A136000231AE160
:1012500001F0E2F878616E4B1B687A69D31A3B6142
:101260006B4A7B6913607B7B1A023B7B1946694B97
:10127000B3F90430CB1A1343FB61FB69B3F5004F9C
:1012800004DAFB69BB620023FB6206E00023BB6259
:10129000FB69C3F57F43FF33FB625F4B5B685E4ACC
:1012A00093605E4B5B685D4A93605B4B1B685A4A78
:1012B00053605A4B1B68594A5360BB6A564A1360C5
:1012C000FB6A564A1360544B5A68534B1B689A4248
:1012D00009DC514B5A68504B9B689A4203DB4E4BDA
:1012E0005B683B6242E04C4B5A684B4B9B689A42AE
:1012F00009DC494B5A68484B1B689A4203DB464B52
:101300005B683B6232E0444B1A68434B9B689A42ED
:1013100009DC414B1A68404B5B689A4203DB3E4B49
:101320001B683B6222E03C4B1A683B4B9B689A422D
:1013300009DC394B1A68384B5B689A4203DB364B41
:101340001B683B6212E0344B9A68334B1B689A422D
:1013500009DC314B9A68304B5B689A4203DB2E4BB9
:101360009B683B6202E02C4B9B683B622B4B5A68AC
:101370002A4B1B689A4209DC284B5A68274B9B680A
:101380009A4203DB254B5B687B624CE0234B5A6837
:10139000224B9B689A4209DC204B5A681F4B1B6802
:1013A0009A4203DB1D4B5B687B623CE01B4B1A6877
:1013B0001A4B9B689A4209DC184B1A68174B5B68FA
:1013C0009A4203DB154B1B687B622CE0134B1A68B7
:1013D000124B9B689A4209DC104B1A680F4B5B68F2
:1013E0009A4203DB0D4B1B687B621CE00B4B9A6837
:1013F0000A4B1B689A4213DC084B9A68074B5B68E0
:101400009A420DDB054B9B687B620CE08C00002050
:1014100090000020AC000020A000002094000020DC
:101420001B4B9B687B627A6A3B6AD21A194B1B681A
:10143000D31A1846FFF776F84FF00002164BFFF765
:10144000DBF802460B4614461D463869FFF75AF88A
:1014500002460B4620462946FFF7CEF802460B46C9
:10146000104619464FF000020C4BFFF7EFF9024609
:101470000B4610461946FFF7D1FA02467B68DA613F
:101480007A6A3B6AD31A18463037BD46B0BD00BFF2
:1014900094000020B400002000408F3F00408F40A7
:1014A00080B584B000AF78600B46FB700023FB6012
:1014B00000237B810CE07868FFF79EFEFB781846DE
:1014C00000F0B6FFB7F90A309BB201339BB27B81C3
:1014D000B7F90A30B3F5007FEDDB00237B8110E024
:1014E0007868FFF789FE0246FB681344FB60FB78CF
:1014F000184600F09DFFB7F90A309BB201339BB24A
:101500007B81B7F90A30B3F5006FE9DBFB68DB12CA
:10151000024A136000BF1037BD4680BDB4000020F2
:1015200080B592B000AF00F011FF00F051F800F06C
:10153000BFFA00F09DFA00F0C7F900F0D5F800F00E
:101540006DFA00F06DF900F0A1F807F120031C4AD4
:101550001C491846FFF734FC786407F10C031A495C
:10156000184605F0BBF807F10C031A461E210A20A5
:1015700000F096FC4FF4FA6000F05AFF07F12003E8
:1015800015211846FFF78CFF4FF4FA6000F050FF6A
:1015900007F120031846FFF72FFEFB6B1846FEF7F6
:1015A000D3FF02460B463846084905F097F83946FE
:1015B0004FF0FF330822024804F097F8E8E700BF35
:1015C000E4010020B800002094700008A470000816
:1015D00080B594B000AF07F12003302200211846F7
:1015E00005F074F807F10C0300221A605A609A6043
:1015F000DA601A610023BB60224B1B6C214A43F066
:10160000805313641F4B1B6C03F08053BB60BB689B
:1016100000237B601C4B1B681B4A43F48043136010
:10162000194B1B6803F480437B607B6802233B6299
:101630000123FB6210233B630023BB6307F12003FC
:10164000184602F01DFD0346002B01D000F0AEFA53
:101650000F23FB6000233B6100237B610023BB6100
:101660000023FB6107F10C030021184602F080FF04
:101670000346002B01D000F099FA00BF5037BD4659
:1016800080BD00BF003802400070004080B500AF50
:10169000124B134A1A60114B124A5A600F4B002228
:1016A0009A600E4B0022DA600C4B4FF480421A61B4
:1016B0000A4B00225A61094B00229A61074B002213
:1016C000DA61064B00221A62044801F019FD034654
:1016D000002B01D000F06AFA00BF80BDB8000020E6
:1016E00000540040A086010080B596B000AF07F11D
:1016F000480300221A605A609A60DA6007F14003DA
:1017000000221A605A6007F1240300221A605A600E
:101710009A60DA601A615A619A613B1D20220021A9
:10172000184604F0D3FF3C4B3C4A1A603A4BA022C7
:101730005A60394B00229A60374B4FF47A72DA6064
:10174000354B00221A61344B00225A61324B002281
:101750009A61314803F0ECF80346002B01D000F009
:1017600025FA4FF48053BB6407F1480319462A4811
:1017700003F0EEFA0346002B01D000F017FA2648DA
:1017800003F025F90346002B01D000F00FFA0023E7
:101790003B6400237B6407F1400319461E4803F0B5
:1017A00089FE0346002B01D000F000FA60237B6223
:1017B0000023BB620023FB6200237B630023BB6327
:1017C0000023FB6307F124030C221946124803F09F
:1017D000FDF90346002B01D000F0E8F900237B60FF
:1017E0000023BB600023FB6000233B6100237B617F
:1017F0004FF40053BB6100233B623B1D1946064872
:1018000003F0D4FE0346002B01D000F0CFF900BF57
:101810005837BD4680BD00BF0C01002000000140CC
:1018200080B58CB000AF07F10C03242200211846CC
:1018300004F04CFF3B1D00221A605A60204B214AE5
:101840001A601F4B00225A601D4B00229A601C4BED
:101850004FF6FF72DA601A4B00221A61184B002211
:101860009A610323FB6000233B6101237B6100231A
:10187000BB610A23FB6100233B6201237B620023DF
:10188000BB620A23FB6207F10C0319460C4803F004
:10189000F7F80346002B01D000F088F900237B60A5
:1018A0000023BB603B1D1946054803F003FE0346B9
:1018B000002B01D000F07AF900BF3037BD4680BD63
:1018C000540100200004004080B596B000AF07F13D
:1018D000480300221A605A609A60DA6007F14003F8
:1018E00000221A605A6007F1240300221A605A602D
:1018F0009A60DA601A615A619A613B1D20220021C8
:10190000184604F0E3FE434B434A1A60414B002261
:101910005A60404B00229A603E4B41F61F42DA600B
:101920003C4B00221A613B4B00225A61394B00228A
:101930009A61384802F0FCFF0346002B01D000F00A
:1019400035F94FF48053BB6407F148031946314819
:1019500003F0FEF90346002B01D000F027F92D48D3
:1019600003F035F80346002B01D000F01FF90023E7
:101970003B6400237B6407F140031946254803F0CC
:1019800099FD0346002B01D000F010F960237B6223
:101990000023BB620023FB6200233B6300237B63C5
:1019A0000023BB630023FB6307F1240300221946D5
:1019B000184803F00BF90346002B01D000F0F6F8AD
:1019C00007F1240304221946124803F0FFF80346E6
:1019D000002B01D000F0EAF800237B600023BB60FD
:1019E0000023FB6000233B6100237B614FF4005325
:1019F000BB6100233B623B1D1946064803F0D6FD40
:101A00000346002B01D000F0D1F800BF5837BD4687
:101A100080BD00BF9C0100200004014080B500AFE4
:101A2000114B124A1A60104B4FF4E1325A600E4BC0
:101A300000229A600C4B0022DA600B4B00221A61E4
:101A4000094B0C225A61084B00229A61064B002276
:101A5000DA61054803F0FCFD0346002B01D000F0DD
:101A6000A5F800BF80BD00BFE40100200048004091
:101A700080B582B000AF00237B600C4B1B6B0B4A20
:101A800043F400131363094B1B6B03F400137B60D7
:101A90007B68002200210C2000F0C9FD0C2000F022
:101AA000E2FD00BF0837BD4680BD00BF00380240E0
:101AB00080B58AB000AF07F1140300221A605A60A3
:101AC0009A60DA601A6100233B61354B1B6B344A24
:101AD00043F010031363324B1B6B03F010033B61A5
:101AE0003B690023FB602E4B1B6B2D4A43F0010327
:101AF00013632B4B1B6B03F00103FB60FB6800239C
:101B0000BB60274B1B6B264A43F008031363244B2F
:101B10001B6B03F00803BB60BB6800237B60204B9A
:101B20001B6B1F4A43F0040313631D4B1B6B03F035
:101B300004037B607B6800233B60194B1B6B184AD6
:101B400043F002031363164B1B6B03F002033B606D
:101B50003B6800224FF4BC61124801F0B7FA4FF421
:101B6000BC637B610123BB610023FB6100233B62FB
:101B700007F1140319460B4801F00CF94FF4807378
:101B80007B610023BB610023FB6107F1140319464D
:101B9000054801F0FFF800BF2837BD4680BD00BFF3
:101BA0000038024000100240000C024080B400AF38
:101BB00072B600BFFEE7000080B584B000AF0346F8
:101BC0000A46FB711346BB71BB79012B06D101227A
:101BD0004FF480711C4801F079FA05E000224FF4BF
:101BE0008071194801F072FA0023FB731EE0002295
:101BF0002021154801F06AFA97F90730002B05DA21
:101C000001224021104801F061FA04E00022402145
:101C10000D4801F05BFA012220210B4801F056FA31
:101C2000FB795B00FB71FB7B0133FB73FB7B072BB9
:101C3000DDD901224FF48071034801F047FA00BF5B
:101C40001037BD4680BD00BF0010024080B582B095
:101C500000AF0023FB7126E0FB79503BDBB2002193
:101C60001846FFF7A9FF00210020FFF7A5FF00217C
:101C70001020FFF7A1FF0023BB710DE0BA79FB79BB
:101C80000D49D2000A4413441B7801211846FFF77E
:101C900093FFBB790133BB7197F90630002BEDDA66
:101CA000FB790133FB71FB79072BD5D900BF00BF4E
:101CB0000837BD4680BD00BF8802002080B582B0D5
:101CC00000AF0023FB7114E00023BB710AE0BA7976
:101CD000FB790C49D2000A44134400221A70BB79E4
:101CE0000133BB7197F90630002BF0DAFB79013331
:101CF000FB71FB79072BE7D9FFF7A8FF00BF083777
:101D0000BD4680BD8802002080B485B000AF034688
:101D1000FB710B46BB7113467B710023FB7397F974
:101D20000730002B41DBBB793F2B3ED8BB79DB086A
:101D3000DBB2C3F10703BB73BB7903F007037B730B
:101D40007B7BC3F10703012202FA03F3FB737B7968
:101D5000002B12D0FA79BB7B1749D2000A441344F6
:101D60001878FA79BB7BF97B0143C8B21249D200DB
:101D70000A44134402461A7018E0FA79BB7B0E49F4
:101D8000D2000A4413441B785AB297F90F30DB4350
:101D90005BB2134059B2FA79BB7BC8B20649D20094
:101DA0000A44134402461A7000E000BF1437BD46CF
:101DB0005DF8047B704700BF8802002090B585B0B5
:101DC00000AF0446084611461A462346FB710346F7
:101DD000BB710B467B7113463B71BB793B737B79BF
:101DE000203B7B710023BB734DE03B790C2B0BD167
:101DF0007A79B97B284813465B0013449B0003445F
:101E00000B441B78FB7307E07A79BB7B23491201F3
:101E10000A4413441B78FB7300237B732DE097F96E
:101E20000F30002B07DA97F82020B979FB79184694
:101E3000FFF76AFF0CE097F82030002B0CBF01235E
:101E40000023DBB21A46B979FB791846FFF75CFF2D
:101E5000FB7B5B00FB73BB790133BB71BA793B7BC6
:101E6000D21A3B799A4205D13B7BBB71FB79013396
:101E7000FB7105E07B7B01337B737B7B072BCED92A
:101E8000BB7B0133BB73BA7B3B799A42ADD300BFB6
:101E900000BF1437BD4690BDAC7000082075000827
:101EA00080B584B002AF03463A60FB710B46BB714C
:101EB0001FE0FB797A2B04D90023FB71BB79103327
:101EC000BB71BB793A2B05D90023FB71FB79BB7140
:101ED000FFF7F4FE3B681A78B979F879012300938B
:101EE0000C23FFF76BFFFB790833FB713B68013371
:101EF0003B603B681B78002BDBD100BF00BF08377D
:101F0000BD4680BD80B483B000AF00237B60104B22
:101F10005B6C0F4A43F4804353640D4B5B6C03F4DA
:101F200080437B607B6800233B60094B1B6C084A45
:101F300043F080531364064B1B6C03F080533B60EB
:101F40003B6800BF0C37BD465DF8047B704700BF9F
:101F50000038024080B58AB000AF786007F1140302
:101F600000221A605A609A60DA601A617B681B6806
:101F7000194A93422CD100233B61184B1B6B174A23
:101F800043F002031363154B1B6B03F002033B6129
:101F90003B694FF440737B611223BB610023FB61FB
:101FA00003233B6204237B6207F1140319460C48A8
:101FB00000F0F0FE0023FB60084B1B6C074A43F463
:101FC00000131364054B1B6C03F40013FB60FB68E8
:101FD00000BF2837BD4680BD005400400038024095
:101FE0000004024080B485B000AF78607B681B6855
:101FF000154A93420ED10023FB60144B5B6C134ACD
:1020000043F001035364114B5B6C03F00103FB606D
:10201000FB6812E07B681B680D4A93420DD10023D8
:10202000BB600A4B5B6C094A43F002035364074BE5
:102030005B6C03F00203BB60BB6800BF1437BD4696
:102040005DF8047B704700BF00000140003802408B
:102050000004014080B58AB000AF786007F1140336
:1020600000221A605A609A60DA601A617B681B6805
:10207000194A93422BD100233B61184B1B6C174A22
:1020800043F002031364154B1B6C03F002033B6126
:102090003B690023FB60114B1B6B104A43F00103AB
:1020A00013630E4B1B6B03F00103FB60FB68C02343
:1020B0007B610223BB610023FB6100233B6202239F
:1020C0007B6207F114031946054800F063FE00BF68
:1020D0002837BD4680BD00BF0004004000380240E4
:1020E0000000024080B58AB000AF786007F11403A9
:1020F00000221A605A609A60DA601A617B681B6875
:10210000354A934263D100233B61344B1B6C334A05
:1021100043F480231364314B1B6C03F480233B6135
:102120003B690023FB602D4B1B6B2C4A43F00403DF
:1021300013632A4B1B6B03F00403FB60FB684FF433
:1021400040637B610223BB610023FB6103233B628D
:1021500007237B6207F114031946214800F01AFE99
:10216000204B214A1A601F4B4FF000625A601D4BF2
:1021700000229A601B4B0022DA601A4B4FF48062F7
:102180001A61184B00225A61164B00229A61154BB6
:102190004FF48072DA61134B00221A62114B002255
:1021A0005A62104800F07AFA0346002B01D0FFF77C
:1021B000FDFC7B680B4A9A630A4A7B6893630022A2
:1021C0000021272000F033FA272000F04CFA00BF4E
:1021D0002837BD4680BD00BF00480040003802409F
:1021E00000080240280200202860024080B400AFAE
:1021F000FEE780B400AFFEE780B400AFFEE780B436
:1022000000AFFEE780B400AFFEE780B400AF00BFD0
:10221000BD465DF8047B704780B400AF00BFBD468B
:102220005DF8047B704780B400AF00BFBD465DF829
:10223000047B704780B500AF00F0DAF800BF80BDC6
:1022400080B500AF024800F069FB00BF80BD00BF51
:102250002802002080B500AF024803F0D9FA00BF81
:1022600080BD00BFE401002080B586B000AF78607B
:10227000144A154BD31A7B617B693B61134B1B6876
:10228000002B02D1114B124A1A60104B1A687B685E
:1022900013443A699A4207D204F0EEF903460C223D
:1022A0001A604FF0FF3309E0084B1B68FB60074BD7
:1022B0001A687B681344054A1360FB681846183790
:1022C000BD4680BD000002200004000088060020FA
:1022D000A006002080B400AF064BD3F88830054A32
:1022E00043F47003C2F8883000BFBD465DF8047B3C
:1022F000704700BF00ED00E0DFF834D00D480E4914
:102300000E4A002302E0D458C4500433C4188C424F
:10231000F9D30B4A0B4C002301E013600432A242B4
:10232000FBD3FFF7D7FF04F0ADF9FFF7F9F87047DB
:10233000000002200000002070000020747B0008D4
:1023400070000020A0060020FEE7000080B500AF6E
:102350000E4B1B680D4A43F4007313600B4B1B6854
:102360000A4A43F480631360084B1B68074A43F42E
:1023700080731360032000F04FF90F2000F008F87D
:10238000FFF7C0FD0023184680BD00BF003C02409F
:1023900080B582B000AF7860124B1A68124B1B7880
:1023A00019464FF47A73B3FBF1F3B2FBF3F318461B
:1023B00000F067F90346002B01D001230EE07B6893
:1023C0000F2B0AD8002279684FF0FF3000F02FF968
:1023D000064A7B681360002300E001231846083793
:1023E000BD4680BD00000020080000200400002041
:1023F00080B400AF064B1B781A46064B1B6813448B
:10240000044A136000BFBD465DF8047B704700BFFF
:10241000080000208C06002080B400AF034B1B682E
:102420001846BD465DF8047B704700BF8C0600204F
:1024300080B584B000AF7860FFF7EEFFB8607B68CE
:10244000FB60FB68B3F1FF3F05D00A4B1B781A46CF
:10245000FB681344FB6000BFFFF7DEFF0246BB686A
:10246000D31AFA689A42F7D800BF00BF1037BD46AA
:1024700080BD00BF0800002080B485B000AF786048
:102480007B6803F00703FB600C4BDB68BB60BA683A
:102490004FF6FF031340BB60FB681A02BB6813438F
:1024A00043F0BF6343F40033BB60044ABB68D360AE
:1024B00000BF1437BD465DF8047B704700ED00E0B7
:1024C00080B400AF044BDB681B0A03F00703184617
:1024D000BD465DF8047B704700ED00E080B483B03A
:1024E00000AF0346FB7197F90730002B0BDBFB793C
:1024F00003F01F02074997F907305B09012000FA32
:1025000002F241F8232000BF0C37BD465DF8047B82
:10251000704700BF00E100E080B483B000AF034625
:102520003960FB7197F90730002B0ADB3B68DAB2A0
:102530000C4997F907301201D2B20B4483F80023FB
:102540000AE03B68DAB20849FB7903F00F03043B69
:102550001201D2B20B441A7600BF0C37BD465DF8AB
:10256000047B704700E100E000ED00E080B489B03A
:1025700000AFF860B9607A60FB6803F00703FB61A5
:10258000FB69C3F10703042B28BF0423BB61FB696C
:102590000433062B02D9FB69033B00E000237B6177
:1025A0004FF0FF32BB6902FA03F3DA43BB681A400B
:1025B0007B699A404FF0FF317B6901FA03F3D943FD
:1025C0007B680B40134318462437BD465DF8047BF7
:1025D0007047000080B582B000AF78607B68013B37
:1025E000B3F1807F01D301230FE00A4A7B68013BEE
:1025F00053600F214FF0FF30FFF78EFF054B002295
:102600009A60044B07221A60002318460837BD461B
:1026100080BD00BF10E000E080B582B000AF786000
:102620007868FFF729FF00BF0837BD4680BD80B539
:1026300086B000AF0346B9607A60FB7300237B610C
:10264000FFF73EFF78617A68B9687869FFF78EFF17
:10265000024697F90F3011461846FFF75DFF00BF9D
:102660001837BD4680BD80B582B000AF0346FB7110
:1026700097F907301846FFF731FF00BF0837BD460E
:1026800080BD80B582B000AF78607868FFF7A2FFA8
:10269000034618460837BD4680BD000080B586B0A9
:1026A00000AF786000237B61FFF7B6FE38617B687E
:1026B000002B01D1012399E07B68022283F83520A9
:1026C0007B68002283F834207B681B681A687B686B
:1026D0001B6822F001021A600FE0FFF79DFE024620
:1026E0003B69D31A052B08D97B6820225A657B6881
:1026F000032283F83520032378E07B681B681B687E
:1027000003F00103002BE8D17B681B681B687B6129
:102710007A69384B13407B617B685A687B689B6899
:102720001A437B68DB681A437B681B691A437B6822
:102730005B691A437B689B691A437B68DB691A43B0
:102740007B681B6A13437A6913437B617B685B6A0E
:10275000042B07D17B68DA6A7B681B6B13437A69A9
:1027600013437B617B681B687A691A607B681B680E
:102770005B697B617B6923F007037B617B685B6A34
:102780007A6913437B617B685B6A042B17D17B6892
:102790009B6A7A6913437B617B68DB6A002B0ED0EE
:1027A000786800F07BFA0346002B08D07B68402253
:1027B0005A657B68012283F83520012316E07B6887
:1027C0001B687A695A61786800F032FA0346FB6048
:1027D0007B68DB6D3F229A40FB689A607B68002231
:1027E0005A657B68012283F8352000231846183784
:1027F000BD4680BD3F8010F080B584B000AF7860EA
:102800007B689B6DFB60FFF707FEB8607B6893F801
:102810003530DBB2022B08D07B6880225A657B689A
:10282000002283F83420012352E07B681B681A6879
:102830007B681B6822F016021A607B681B685A6965
:102840007B681B6822F080025A617B681B6C002B3E
:1028500003D17B689B6C002B07D07B681B681A68D0
:102860007B681B6822F008021A607B681B681A6884
:102870007B681B6822F001021A6013E0FFF7CCFDB1
:102880000246BB68D31A052B0CD97B6820225A65F7
:102890007B68032283F835207B68002283F834208C
:1028A000032315E07B681B681B6803F00103002B02
:1028B000E4D17B68DB6D3F229A40FB689A607B68BD
:1028C000012283F835207B68002283F8342000231E
:1028D00018461037BD4680BD80B483B000AF786025
:1028E0007B6893F83530DBB2022B04D07B68802202
:1028F0005A6501230CE07B68052283F835207B684C
:102900001B681A687B681B6822F001021A600023AA
:1029100018460C37BD465DF8047B704780B586B01D
:1029200000AF78600023BB608E4B1B688E4AA2FB11
:1029300003239B0A7B617B689B6D3B613B691B6842
:10294000FB607B68DB6D08229A40FB681340002B1C
:102950001AD07B681B681B6803F00403002B13D09C
:102960007B681B681A687B681B6822F004021A6087
:102970007B68DB6D08229A403B699A607B685B6DDF
:1029800043F001027B685A657B68DB6D01229A4047
:10299000FB681340002B12D07B681B685B6903F057
:1029A0008003002B0BD07B68DB6D01229A403B69D2
:1029B0009A607B685B6D43F002027B685A657B68B6
:1029C000DB6D04229A40FB681340002B12D07B6819
:1029D0001B681B6803F00203002B0BD07B68DB6DC8
:1029E00004229A403B699A607B685B6D43F0040265
:1029F0007B685A657B68DB6D10229A40FB68134048
:102A0000002B43D07B681B681B6803F00803002B76
:102A10003CD07B68DB6D10229A403B699A607B68F2
:102A20001B681B6803F48023002B18D07B681B688D
:102A30001B6803F40023002B08D17B681B6C002B60
:102A400024D07B681B6C786898471FE07B689B6C80
:102A5000002B1BD07B689B6C7868984716E07B68DE
:102A60001B681B6803F48073002B07D17B681B680D
:102A70001A687B681B6822F008021A607B681B6C6E
:102A8000002B03D07B681B6C786898477B68DB6DF4
:102A900020229A40FB681340002B00F08F807B6857
:102AA0001B681B6803F01003002B00F087807B6815
:102AB000DB6D20229A403B699A607B6893F8353041
:102AC000DBB2052B36D17B681B681A687B681B68F4
:102AD00022F016021A607B681B685A697B681B68C3
:102AE00022F080025A617B681B6C002B03D17B684B
:102AF0009B6C002B07D07B681B681A687B681B687F
:102B000022F008021A607B68DB6D3F229A403B6925
:102B10009A607B68012283F835207B68002283F865
:102B200034207B681B6D002B7ED07B681B6D786822
:102B3000984779E07B681B681B6803F48023002BAF
:102B40001DD07B681B681B6803F40023002B0DD18C
:102B50007B685B6C002B31D07B685B6C7868984736
:102B60002CE000BF00000020B5814E1B7B68DB6BB2
:102B7000002B23D07B68DB6B786898471EE07B686E
:102B80001B681B6803F48073002B0FD17B681B68E4
:102B90001A687B681B6822F010021A607B680122A9
:102BA00083F835207B68002283F834207B68DB6B58
:102BB000002B03D07B68DB6B786898477B685B6D84
:102BC000002B32D07B685B6D03F00103002B22D019
:102BD0007B68052283F835207B681B681A687B6850
:102BE0001B6822F001021A60BB680133BB607A697E
:102BF0009A4207D37B681B681B6803F00103002B14
:102C0000F2D100E000BF7B68012283F835207B68A9
:102C1000002283F834207B68DB6C002B05D07B68B6
:102C2000DB6C7868984700E000BF1837BD4680BD70
:102C300080B485B000AF78607B681B68DBB2103B66
:102C4000144AA2FB03231B09FB60134AFB681344CD
:102C50001B781A467B68DA65FB68032B09D97B6809
:102C60001B6823F47F7323F003031A1D7B689A65A6
:102C700007E07B681B6823F47F7323F003037A6803
:102C800093657B689B6D18461437BD465DF8047BE1
:102C9000704700BFABAAAAAA287B000880B485B001
:102CA00000AF78600023FB737B689B6ABB607B6826
:102CB0009B69002B1FD1BB68032B56D801A252F889
:102CC00023F000BFD52C0008E72C0008D52C000805
:102CD0006B2D00087B68DB6A03F08073002B46D005
:102CE0000123FB7343E07B68DB6AB3F1C07F40D113
:102CF0000123FB733DE07B689B69B3F5005F21D145
:102D0000BB68032B37D801A252F823F01D2D000811
:102D1000232D00081D2D0008352D00080123FB730D
:102D200030E07B68DB6A03F08073002B25D0012341
:102D3000FB7322E07B68DB6AB3F1C07F1FD1012304
:102D4000FB731CE0BB68022B03D9BB68032B03D0C9
:102D500018E00123FB7315E07B68DB6A03F08073E6
:102D6000002B0ED00123FB730BE000BF0AE000BF75
:102D700008E000BF06E000BF04E000BF02E000BFC3
:102D800000E000BFFB7B18461437BD465DF8047BAE
:102D9000704700BF80B489B000AF7860396000230D
:102DA0007B6100233B610023BB610023FB616BE17E
:102DB0000122FB6902FA03F37B613B681B687A69B5
:102DC00013403B613A697B699A4240F05A813B6803
:102DD0005B6803F00303012B05D03B685B6803F0DD
:102DE0000303022B30D17B689B68BB61FB695B00EE
:102DF000032202FA03F3DB43BA691340BB613B6869
:102E0000DA68FB695B0002FA03F3BA691343BB613A
:102E10007B68BA699A607B685B68BB610122FB6969
:102E200002FA03F3DB43BA691340BB613B685B689A
:102E30001B0903F00102FB6902FA03F3BA691343A9
:102E4000BB617B68BA695A603B685B6803F0030347
:102E5000032B17D07B68DB68BB61FB695B00032237
:102E600002FA03F3DB43BA691340BB613B689A681B
:102E7000FB695B0002FA03F3BA691343BB617B6829
:102E8000BA69DA603B685B6803F00303022B23D165
:102E9000FB69DA087B68083253F82230BB61FB69B2
:102EA00003F007039B000F2202FA03F3DB43BA6926
:102EB0001340BB613B681A69FB6903F007039B0081
:102EC00002FA03F3BA691343BB61FB69DA087B6852
:102ED0000832B96943F822107B681B68BB61FB6943
:102EE0005B00032202FA03F3DB43BA691340BB61C0
:102EF0003B685B6803F00302FB695B0002FA03F3C3
:102F0000BA691343BB617B68BA691A603B685B6846
:102F100003F44033002B00F0B4800023FB60604BCF
:102F20005B6C5F4A43F4804353645D4B5B6C03F41A
:102F30008043FB60FB685B4AFB699B08023352F8E5
:102F40002330BB61FB6903F003039B000F2202FAED
:102F500003F3DB43BA691340BB617B68524A934277
:102F60002BD07B68514A934225D07B68504A9342CC
:102F70001FD07B684F4A934219D07B684E4A9342D8
:102F800013D07B684D4A93420DD07B684C4A9342E4
:102F900007D07B684B4A934201D107230EE00823F8
:102FA0000CE006230AE0052308E0042306E00323DF
:102FB00004E0022302E0012300E00023FA6902F0AA
:102FC000030292009340BA691343BB613549FB6920
:102FD0009B080233BA6941F823203B4B1B68BB6155
:102FE0003B69DB43BA691340BB613B685B6803F430
:102FF0008033002B03D0BA693B691343BB61324A6B
:10300000BB691360304B5B68BB613B69DB43BA69EA
:103010001340BB613B685B6803F40033002B03D0B3
:10302000BA693B691343BB61274ABB695360264BAE
:103030009B68BB613B69DB43BA691340BB613B687A
:103040005B6803F48013002B03D0BA693B69134318
:10305000BB611D4ABB6993601B4BDB68BB613B696D
:10306000DB43BA691340BB613B685B6803F4001340
:10307000002B03D0BA693B691343BB61124ABB6999
:10308000D360FB690133FB61FB690F2B7FF690AEC8
:1030900000BF00BF2437BD465DF8047B704700BF0A
:1030A00000380240003801400000024000040240A5
:1030B00000080240000C02400010024000140240D0
:1030C00000180240001C0240003C014080B483B064
:1030D00000AF78600B467B8013467B707B78002BBB
:1030E00003D07A887B689A6103E07B881A047B6846
:1030F0009A6100BF0C37BD465DF8047B7047000045
:1031000080B584B000AF78607B68002B01D10123CB
:103110002BE17B6893F83D30DBB2002B06D17B6856
:10312000002283F83C207868FEF714FF7B68242295
:1031300083F83D207B681B681A687B681B6822F057
:1031400001021A607B681B681A687B681B6842F47E
:1031500000421A607B681B681A687B681B6822F44F
:1031600000421A6001F0BCFBF8607B685B68814A32
:10317000934207D8FB68804A934294BF01230023FF
:10318000DBB206E0FB687D4A934294BF0123002333
:10319000DBB2002B01D00123E7E0FB68784AA2FBF9
:1031A00003239B0CBB607B681B685B6823F03F01BB
:1031B0007B681B68BA680A435A607B681B681B6A95
:1031C00023F03F017B685B686A4A934202D8BB6880
:1031D000013309E0BB684FF4967202FB03F3694ABE
:1031E000A2FB03239B0901337A6812680B43136225
:1031F0007B681B68DB6923F44F4222F0FF027B6887
:103200005B685C498B4219D8FB68591E7B685B6818
:103210005B00B1FBF3F3591C40F6FC730B40002B31
:103220000AD0FB68591E7B685B685B00B1FBF3F357
:103230000133C3F30B0351E004234FE07B689B6829
:10324000002B11D1FB68581E7B6859680B465B0048
:103250000B44B0FBF3F30133C3F30B03002B0CBFA0
:1032600001230023DBB212E0FB68581E7B6859681B
:103270000B469B000B4499000B44B0FBF3F3013366
:10328000C3F30B03002B0CBF01230023DBB2002B85
:1032900001D0012322E07B689B68002B0ED1FB68E4
:1032A000581E7B6859680B465B000B44B0FBF3F378
:1032B0000133C3F30B0343F400430FE0FB68581ED4
:1032C0007B6859680B469B000B4499000B44B0FB8C
:1032D000F3F30133C3F30B0343F440437968096804
:1032E0001343CB617B681B681B6823F0C0017B68BC
:1032F000DA697B681B6A1A437B681B680A431A6099
:103300007B681B689B6823F4034323F0FF037A6800
:1033100011697A68D26811437A6812680B43936026
:103320007B681B68DB6823F0FF017B685A697B6858
:103330009B691A437B681B680A43DA607B681B68D9
:103340001A687B681B6842F001021A607B680022E1
:103350001A647B68202283F83D207B6800221A6370
:103360007B68002283F83E20002318461037BD46B4
:1033700080BD00BFA08601007F841E00FF083D00C5
:1033800083DE1B43D34D621080B588B002AFF86076
:10339000084611461A4603467B810B463B8113467D
:1033A000FB80FFF739F87861FB6893F83D30DBB2BA
:1033B000202B40F0D9807B690093192301226D49AD
:1033C000F86800F07FFC0346002B01D00223CCE01C
:1033D000FB6893F83C30012B01D10223C5E0FB6868
:1033E000012283F83C20FB681B681B6803F0010383
:1033F000012B07D0FB681B681A68FB681B6842F04A
:1034000001021A60FB681B681A68FB681B6822F4DB
:1034100000621A60FB68212283F83D20FB6840228D
:1034200083F83E20FB6800221A64FB683A6A5A62FD
:10343000FB68BA8C5A85FB685B8D9AB2FB681A856B
:10344000FB684D4ADA62F8883A8979897B69019389
:10345000BB6A00930346F86800F0B6FA0346002BF7
:1034600052D0012381E07A69B96AF86800F000FD62
:103470000346002B0DD0FB681B6C042B07D1FB68A7
:103480001B681A68FB681B6842F400721A6001230B
:103490006BE0FB685B6A1A78FB681B681A61FB6863
:1034A0005B6A5A1CFB685A62FB681B8D013B9AB22F
:1034B000FB681A85FB685B8D9BB2013B9AB2FB6887
:1034C0005A85FB681B685B6903F00403042B1BD15E
:1034D000FB681B8D002B17D0FB685B6A1A78FB68B2
:1034E0001B681A61FB685B6A5A1CFB685A62FB68BE
:1034F0001B8D013B9AB2FB681A85FB685B8D9BB202
:10350000013B9AB2FB685A85FB681B8D002BAAD140
:103510007A69B96AF86800F0ECFC0346002B0DD01C
:10352000FB681B6C042B07D1FB681B681A68FB68DF
:103530001B6842F400721A60012316E0FB681B68E6
:103540001A68FB681B6842F400721A60FB6820224C
:1035500083F83D20FB68002283F83E20FB680022B0
:1035600083F83C20002300E0022318461837BD46AC
:1035700080BD00BF020010000000FFFF80B58CB0CE
:1035800002AFF860084611461A4603467B810B4697
:103590003B811346FB80FEF73FFF7862FB6893F8A0
:1035A0003D30DBB2202B40F008827B6A0093192368
:1035B00001227B49F86800F085FB0346002B01D00F
:1035C0000223FBE1FB6893F83C30012B01D102237D
:1035D000F4E1FB68012283F83C20FB681B681B6850
:1035E00003F00103012B07D0FB681B681A68FB6816
:1035F0001B6842F001021A60FB681B681A68FB68CE
:103600001B6822F400621A60FB68222283F83D20C6
:10361000FB68402283F83E20FB6800221A64FB68A6
:103620003A6B5A62FB68BA8E5A85FB685B8D9AB218
:10363000FB681A85FB685B4ADA62F8883A897989FF
:103640007B6A0193BB6B00930346F86800F052FA63
:103650000346002B01D00123B0E1FB681B8D002B3A
:1036600013D100233B62FB681B685B693B62FB680C
:103670001B689B693B623B6AFB681B681A68FB68B6
:103680001B6842F400721A6084E1FB681B8D012BF9
:103690001BD1FB681B681A68FB681B6822F48062F8
:1036A0001A600023FB61FB681B685B69FB61FB68B8
:1036B0001B689B69FB61FB69FB681B681A68FB68F8
:1036C0001B6842F400721A6064E1FB681B8D022BD8
:1036D0001BD1FB681B681A68FB681B6822F48062B8
:1036E0001A60FB681B681A68FB681B6842F400627A
:1036F0001A600023BB61FB681B685B69BB61FB68E8
:103700001B689B69BB61BB6944E100237B61FB686B
:103710001B685B697B61FB681B689B697B617B69DC
:1037200038E1FB681B8D032B00F2F180FB681B8DD9
:10373000012B23D17A6AB96BF86800F01BFC0346B1
:10374000002B01D0012339E1FB681B681A69FB6873
:103750005B6AD2B21A70FB685B6A5A1CFB685A62D9
:10376000FB681B8D013B9AB2FB681A85FB685B8D79
:103770009BB2013B9AB2FB685A850BE1FB681B8D3B
:10378000022B4ED17B6A0093BB6B00220649F8687E
:1037900000F098FA0346002B08D001230EE100BF89
:1037A000020010000000FFFF04000100FB681B681E
:1037B0001A68FB681B6842F400721A60FB681B6899
:1037C0001A69FB685B6AD2B21A70FB685B6A5A1CA2
:1037D000FB685A62FB681B8D013B9AB2FB681A8535
:1037E000FB685B8D9BB2013B9AB2FB685A85FB6814
:1037F0001B681A69FB685B6AD2B21A70FB685B6A65
:103800005A1CFB685A62FB681B8D013B9AB2FB682D
:103810001A85FB685B8D9BB2013B9AB2FB685A85A7
:10382000B8E07B6A0093BB6B00226649F86800F041
:1038300049FA0346002B01D00123BFE0FB681B6857
:103840001A68FB681B6822F480621A60FB681B68B8
:103850001A69FB685B6AD2B21A70FB685B6A5A1C11
:10386000FB685A62FB681B8D013B9AB2FB681A85A4
:10387000FB685B8D9BB2013B9AB2FB685A857B6A01
:103880000093BB6B00224F49F86800F01BFA034617
:10389000002B01D0012391E0FB681B681A68FB68CC
:1038A0001B6842F400721A60FB681B681A69FB68A7
:1038B0005B6AD2B21A70FB685B6A5A1CFB685A6278
:1038C000FB681B8D013B9AB2FB681A85FB685B8D18
:1038D0009BB2013B9AB2FB685A85FB681B681A6968
:1038E000FB685B6AD2B21A70FB685B6A5A1CFB68A1
:1038F0005A62FB681B8D013B9AB2FB681A85FB6814
:103900005B8D9BB2013B9AB2FB685A8542E07A6AB2
:10391000B96BF86800F02EFB0346002B01D00123A1
:103920004CE0FB681B681A69FB685B6AD2B21A70CC
:10393000FB685B6A5A1CFB685A62FB681B8D013B83
:103940009AB2FB681A85FB685B8D9BB2013B9AB209
:10395000FB685A85FB681B685B6903F00403042B52
:1039600018D1FB681B681A69FB685B6AD2B21A70CF
:10397000FB685B6A5A1CFB685A62FB681B8D013B43
:103980009AB2FB681A85FB685B8D9BB2013B9AB2C9
:10399000FB685A85FB681B8D002B7FF4C2AEFB6869
:1039A000202283F83D20FB68002283F83E20FB683C
:1039B000002283F83C20002300E002231846283729
:1039C000BD4680BD0400010080B588B002AFF8603C
:1039D000084611461A4603467B810B463B81134637
:1039E000FB80FB681B681A68FB681B6842F48072E6
:1039F0001A607B6A00933B6A00224FF00111F8685D
:103A000000F060F90346002B0DD0FB681B681B68B3
:103A100003F48073B3F5807F03D1FB684FF4007229
:103A20001A6403235FE07B89DBB21A46FB681B68DC
:103A300002F0FE021A617B6A3A6A2D49F86800F0CA
:103A400098F90346002B01D001234CE000237B6151
:103A5000FB681B685B697B61FB681B689B697B611A
:103A60007B697A6A396AF86800F002FA0346002B2B
:103A70000DD0FB681B6C042B07D1FB681B681A6810
:103A8000FB681B6842F400721A6001232BE0FB887C
:103A9000012B05D13B89DAB2FB681B681A6121E072
:103AA0003B891B0A9BB2DAB2FB681B681A617A6A0F
:103AB000396AF86800F0DCF90346002B0DD0FB688A
:103AC0001B6C042B07D1FB681B681A68FB681B681A
:103AD00042F400721A60012305E03B89DAB2FB6808
:103AE0001B681A61002318461837BD4680BD00BF09
:103AF0000200010080B588B002AFF86008461146A8
:103B00001A4603467B810B463B811346FB80FB68CC
:103B10001B681A68FB681B6842F480621A60FB68C5
:103B20001B681A68FB681B6842F480721A607B6A23
:103B300000933B6A00224FF00111F86800F0C2F8D0
:103B40000346002B0DD0FB681B681B6803F48073D1
:103B5000B3F5807F03D1FB684FF400721A6403232E
:103B6000AAE07B89DBB21A46FB681B6802F0FE0202
:103B70001A617B6A3A6A5249F86800F0FAF803461B
:103B8000002B01D0012397E000237B61FB681B68B9
:103B90005B697B61FB681B689B697B617B697A6AF7
:103BA000396AF86800F064F90346002B0DD0FB6811
:103BB0001B6C042B07D1FB681B681A68FB681B6829
:103BC00042F400721A60012376E0FB88012B05D1D4
:103BD0003B89DAB2FB681B681A6121E03B891B0A4A
:103BE0009BB2DAB2FB681B681A617A6A396AF868B4
:103BF00000F03EF90346002B0DD0FB681B6C042B34
:103C000007D1FB681B681A68FB681B6842F40072E6
:103C10001A60012350E03B89DAB2FB681B681A6125
:103C20007A6A396AF86800F023F90346002B0DD050
:103C3000FB681B6C042B07D1FB681B681A68FB68C8
:103C40001B6842F400721A60012335E0FB681B68B0
:103C50001A68FB681B6842F480721A607B6A0093E2
:103C60003B6A00224FF00111F86800F02BF8034680
:103C7000002B0DD0FB681B681B6803F48073B3F541
:103C8000807F03D1FB684FF400721A64032313E0B2
:103C90007B89DBB243F00103DAB2FB681B681A616F
:103CA0007B6A3A6A0649F86800F063F80346002B1D
:103CB00001D0012300E0002318461837BD4680BD1F
:103CC0000200010080B584B000AFF860B9603B60CD
:103CD0001346FB7125E03B68B3F1FF3F21D0FEF7AF
:103CE0009BFB0246BB69D31A3A689A4202D33B68EF
:103CF000002B16D1FB6800221A63FB68202283F890
:103D00003D20FB68002283F83E20FB681B6C43F0DB
:103D10002002FB681A64FB68002283F83C20012320
:103D200023E0BB681B0CDBB2012B0DD1FB681B68C9
:103D30005B69DA43BB6813409BB2002B0CBF0123C5
:103D40000023DBB21A460CE0FB681B689B69DA4370
:103D5000BB6813409BB2002B0CBF01230023DBB2D6
:103D60001A46FB799A42B6D0002318461037BD4652
:103D700080BD80B584B000AFF860B9607A603B6008
:103D800051E0FB681B685B6903F48063B3F5806FE7
:103D900023D1FB681B681A68FB681B6842F4007239
:103DA0001A60FB681B686FF480625A61FB6800222E
:103DB0001A63FB68202283F83D20FB68002283F809
:103DC0003E20FB681B6C43F00402FB681A64FB682E
:103DD000002283F83C20012346E07B68B3F1FF3FDB
:103DE00021D0FEF719FB02463B68D31A7A689A4243
:103DF00002D37B68002B16D1FB6800221A63FB6894
:103E0000202283F83D20FB68002283F83E20FB68D7
:103E10001B6C43F02002FB681A64FB68002283F8E5
:103E20003C20012320E0BB681B0CDBB2012B0CD132
:103E3000FB681B685B69DA43BB6813409BB2002BCD
:103E400014BF01230023DBB20BE0FB681B689B69F6
:103E5000DA43BB6813409BB2002B14BF012300233D
:103E6000DBB2002B8DD1002318461037BD4680BD34
:103E700080B584B000AFF860B9607A602DE0F86872
:103E800000F0CEF80346002B01D001232DE0BB68E3
:103E9000B3F1FF3F21D0FEF7BFFA02467B68D31A89
:103EA000BA689A4202D3BB68002B16D1FB68002285
:103EB0001A63FB68202283F83D20FB68002283F808
:103EC0003E20FB681B6C43F02002FB681A64FB6811
:103ED000002283F83C20012307E0FB681B685B6934
:103EE00003F08003802BCAD1002318461037BD464B
:103EF00080BD80B584B000AFF860B9607A602DE015
:103F0000F86800F08DF80346002B01D001232DE066
:103F1000BB68B3F1FF3F21D0FEF77EFA02467B6813
:103F2000D31ABA689A4202D3BB68002B16D1FB6839
:103F300000221A63FB68202283F83D20FB680022E0
:103F400083F83E20FB681B6C43F02002FB681A6478
:103F5000FB68002283F83C20012307E0FB681B6814
:103F60005B6903F00403042BCAD100231846103701
:103F7000BD4680BD80B584B000AFF860B9607A609E
:103F800042E0FB681B685B6903F01003102B19D13A
:103F9000FB681B686FF010025A61FB6800221A630D
:103FA000FB68202283F83D20FB68002283F83E2036
:103FB000FB681A6CFB681A64FB68002283F83C20DB
:103FC000012329E0FEF728FA02467B68D31ABA6873
:103FD0009A4202D3BB68002B16D1FB6800221A63F9
:103FE000FB68202283F83D20FB68002283F83E20F6
:103FF000FB681B6C43F02002FB681A64FB6800221C
:1040000083F83C20012307E0FB681B685B6903F031
:104010004003402BB5D1002318461037BD4680BD64
:1040200080B483B000AF78607B681B685B6903F481
:104030008063B3F5806F1BD17B681B686FF480626F
:104040005A617B6800221A637B68202283F83D2036
:104050007B68002283F83E207B681B6C43F00402DF
:104060007B681A647B68002283F83C20012300E00F
:10407000002318460C37BD465DF8047B70470000EE
:1040800080B586B000AF78607B68002B01D101233A
:1040900067E27B681B6803F00103002B75D0884B37
:1040A0009B6803F00C03042B0CD0854B9B6803F03A
:1040B0000C03082B12D1824B5B6803F48003B3F529
:1040C000800F0BD17E4B1B6803F40033002B5BD0B9
:1040D0007B685B68002B57D1012342E27B685B68F9
:1040E000B3F5803F06D1764B1B68754A43F48033A5
:1040F00013601DE07B685B68B3F5A02F0CD1704B9B
:104100001B686F4A43F4802313606D4B1B686C4A35
:1041100043F4803313600BE0694B1B68684A23F457
:1041200080331360664B1B68654A23F48023136059
:104130007B685B68002B13D0FEF76EF9386108E0EE
:10414000FEF76AF902463B69D31A642B01D90323AF
:1041500007E25B4B1B6803F40033002BF0D014E044
:10416000FEF75AF9386108E0FEF756F902463B6956
:10417000D31A642B01D90323F3E1514B1B6803F4D9
:104180000033002BF0D100E000BF7B681B6803F018
:104190000203002B63D04A4B9B6803F00C03002BF7
:1041A0000BD0474B9B6803F00C03082B1CD1444BEE
:1041B0005B6803F48003002B16D1414B1B6803F0AE
:1041C0000203002B05D07B68DB68012B01D00123A3
:1041D000C7E13B4B1B6823F0F8027B681B69DB00DF
:1041E000374913430B603AE07B68DB68002B20D033
:1041F000344B01221A60FEF70FF9386108E0FEF730
:104200000BF902463B69D31A022B01D90323A8E11B
:104210002B4B1B6803F00203002BF0D0284B1B68CC
:1042200023F0F8027B681B69DB00254913430B6010
:1042300015E0244B00221A60FEF7EEF8386108E022
:10424000FEF7EAF802463B69D31A022B01D9032391
:1042500087E11B4B1B6803F00203002BF0D17B6846
:104260001B6803F00803002B36D07B685B69002BCA
:1042700016D0154B01221A60FEF7CEF8386108E01F
:10428000FEF7CAF802463B69D31A022B01D9032371
:1042900067E10B4B5B6F03F00203002BF0D01BE0D8
:1042A000094B00221A60FEF7B7F838610EE0FEF7FE
:1042B000B3F802463B69D31A022B07D9032350E116
:1042C0000038024000004742800E4742884B5B6F37
:1042D00003F00203002BEAD17B681B6803F00403A0
:1042E000002B00F097800023FB75814B1B6C03F0C3
:1042F0008053002B0FD10023BB607D4B1B6C7C4A8D
:1043000043F0805313647A4B1B6C03F08053BB6003
:10431000BB680123FB75774B1B6803F48073002B8C
:1043200018D1744B1B68734A43F480731360FEF713
:1043300073F8386108E0FEF76FF802463B69D31A5C
:10434000022B01D903230CE16A4B1B6803F4807331
:10435000002BF0D07B689B68012B06D1644B1B6F50
:10436000634A43F0010313671CE07B689B68052BDD
:104370000CD15F4B1B6F5E4A43F0040313675C4B29
:104380001B6F5B4A43F0010313670BE0584B1B6F35
:10439000574A23F001031367554B1B6F544A23F010
:1043A000040313677B689B68002B15D0FEF734F875
:1043B00038610AE0FEF730F802463B69D31A41F251
:1043C0008832934201D90323CBE0494B1B6F03F0A2
:1043D0000203002BEED014E0FEF71EF838610AE06D
:1043E000FEF71AF802463B69D31A41F2883293422B
:1043F00001D90323B5E03E4B1B6F03F00203002BF2
:10440000EED1FB7D012B05D1394B1B6C384A23F0D3
:10441000805313647B689B69002B00F0A180344BB0
:104420009B6803F00C03082B5CD07B689B69022B14
:1044300041D1314B00221A60FDF7EEFF386108E0F0
:10444000FDF7EAFF02463B69D31A022B01D9032389
:1044500087E0274B1B6803F00073002BF0D17B68CB
:10446000DA697B681B6A1A437B685B6A9B011A43A3
:104470007B689B6A5B08013B1B041A437B68DB6A11
:104480001B061B4913434B601B4B01221A60FDF7AF
:10449000C3FF386108E0FDF7BFFF02463B69D31A4E
:1044A000022B01D903235CE0114B1B6803F000735E
:1044B000002BF0D054E0104B00221A60FDF7ACFF47
:1044C000386108E0FDF7A8FF02463B69D31A022BCA
:1044D00001D9032345E0064B1B6803F00073002B52
:1044E000F0D13DE07B689B69012B07D1012338E0C7
:1044F0000038024000700040600047421B4B5B6880
:10450000FB607B689B69012B28D0FB6803F4800269
:104510007B68DB699A4221D1FB6803F03F027B682C
:104520001B6A9A421AD1FA6847F6C07313407A6838
:10453000526A9201934211D1FB6803F440327B68C6
:104540009B6A5B08013B1B049A4207D1FB6803F09E
:1045500070627B68DB6A1B069A4201D0012300E08F
:10456000002318461837BD4680BD00BF0038024002
:1045700080B584B000AF786039607B68002B01D1D2
:104580000123CCE0684B1B6803F007033A689A42AA
:104590000CD9654B3A68D2B21A70634B1B6803F0B2
:1045A00007033A689A4201D00123B8E07B681B6890
:1045B00003F00203002B20D07B681B6803F0040388
:1045C000002B05D0594B9B68584A43F4E053936045
:1045D0007B681B6803F00803002B05D0534B9B68D6
:1045E000524A43F460439360504B9B6823F0F002BF
:1045F0007B689B684D4913438B607B681B6803F0A5
:104600000103002B44D07B685B68012B07D1474B2B
:104610001B6803F40033002B19D101237FE07B6872
:104620005B68022B03D07B685B68032B07D13F4B91
:104630001B6803F00073002B09D101236FE03B4B93
:104640001B6803F00203002B01D1012367E0374B05
:104650009B6823F003027B685B68344913438B60DB
:10466000FDF7DAFEF8600AE0FDF7D6FE0246FB68C9
:10467000D31A41F28832934201D903234FE02B4BE6
:104680009B6803F00C027B685B689B009A42EBD14D
:10469000254B1B6803F007033A689A420CD2224B61
:1046A0003A68D2B21A70204B1B6803F007033A68CD
:1046B0009A4201D0012332E07B681B6803F00403B7
:1046C000002B08D0194B9B6823F4E0527B68DB6811
:1046D000164913438B607B681B6803F00803002BAB
:1046E00009D0124B9B6823F460427B681B69DB0096
:1046F0000E4913438B6000F021F802460B4B9B6878
:104700001B0903F00F030A49CB5C22FA03F3094AA1
:104710001360094B1B681846FDF73AFE0023184644
:104720001037BD4680BD00BF003C0240003802404B
:10473000107B000800000020040000202DE9B04F8D
:1047400090B000AF00237B630023FB6300233B6337
:104750000023BB63594B9B6803F00C03082B0DD05F
:10476000082B00F2A180002B02D0042B03D09BE089
:10477000534BBB639BE0534BBB6398E04F4B5B6871
:1047800003F03F037B634D4B5B6803F48003002B16
:1047900028D04A4B5B689B0900223B627A623B6AE5
:1047A000C3F308000021474B03FB01F2002300FB89
:1047B00003F31344434AA0FB0212FA620A46BA62A8
:1047C000FA6A1344FB627B6B0022BB61FA61D7E992
:1047D0000623D7E90A01FCF771F902460B46134696
:1047E000FB6353E0354B5B689B0900223B617A61B8
:1047F0003B69C3F3080A4FF0000B52465B464FF08B
:1048000000004FF00001590141EAD2615001024617
:104810000B46B2EB0A0863EB0B094FF000024FF0B6
:1048200000034FEA891343EA98634FEA8812B2EB18
:10483000080463EB09054FF000024FF00003EB00A2
:1048400043EA5473E20014461D4614EB0A033B602E
:1048500045EB0B037B604FF000024FF00003D7E9FC
:10486000004529468B02214643EA915321468A029C
:10487000104619467B6B0022BB60FA60D7E9022321
:10488000FCF71CF902460B461346FB630B4B5B68B7
:104890001B0C03F0030301335B003B63FA6B3B6BC0
:1048A000B2FBF3F3BB6302E0054BBB6300BFBB6B22
:1048B00018464037BD46BDE8B08F00BF0038024003
:1048C0000024F40040787D0180B400AF034B1B68E6
:1048D0001846BD465DF8047B704700BF000000200D
:1048E00080B500AFFFF7F0FF0246054B9B689B0ABF
:1048F00003F007030349CB5C22FA03F3184680BD9B
:1049000000380240207B000880B500AFFFF7DCFFD5
:104910000246054B9B685B0B03F007030349CB5C26
:1049200022FA03F3184680BD00380240207B0008BD
:1049300080B582B000AF78607B68002B01D1012385
:1049400041E07B6893F83D30DBB2002B06D17B68F9
:10495000002283F83C207868FDF744FB7B68022244
:1049600083F83D207B681A687B680433194610463B
:1049700000F0B6FA7B68012283F846207B680122AA
:1049800083F83E207B68012283F83F207B68012268
:1049900083F840207B68012283F841207B68012254
:1049A00083F842207B68012283F843207B68012240
:1049B00083F844207B68012283F845207B6801222C
:1049C00083F83D20002318460837BD4680BD80B5DA
:1049D00082B000AF78607B68002B01D1012341E0F9
:1049E0007B6893F83D30DBB2002B06D17B68002258
:1049F00083F83C20786800F039F87B68022283F85D
:104A00003D207B681A687B6804331946104600F025
:104A100067FA7B68012283F846207B68012283F8CD
:104A20003E207B68012283F83F207B68012283F8C7
:104A300040207B68012283F841207B68012283F8B3
:104A400042207B68012283F843207B68012283F89F
:104A500044207B68012283F845207B68012283F88B
:104A60003D20002318460837BD4680BD80B483B082
:104A700000AF786000BF0C37BD465DF8047B70471F
:104A800080B586B000AF786039607B68002B01D1BB
:104A9000012397E07B6893F83D30DBB2002B06D111
:104AA0007B68002283F83C207868FDF7D3FA7B68A6
:104AB000022283F83D207B681B689B687A68126835
:104AC00023F4804323F0070393607B681A687B68B4
:104AD00004331946104600F003FA7B681B689B6894
:104AE0007B617B681B689B693B617B681B681B6AF9
:104AF000FB603B681B687A6913437B613B6923F465
:104B0000407323F003033B613B689A683B689B69F1
:104B10001B0213433A6913433B613B6923F440632F
:104B200023F00C033B613B6923F4704323F0F00353
:104B30003B613B68DA683B68DB691B0213433A69F7
:104B400013433B613B681B691A013B681B6A1B03EB
:104B500013433A6913433B61FB6823F02203FB6074
:104B6000FB6823F08803FB603B685A683B685B691D
:104B70001B011343FA681343FB607B681B687A6967
:104B80009A607B681B683A699A617B681B68FA685F
:104B90001A627B68012283F846207B68012283F831
:104BA0003E207B68012283F83F207B68012283F846
:104BB00042207B68012283F843207B68012283F82E
:104BC0003D20002318461837BD4680BD80B586B00D
:104BD00000AFF860B9607A600023FB75FB6893F85A
:104BE0003C30012B01D10223AEE0FB68012283F8A7
:104BF0003C207B680C2B00F29F8001A252F823F02E
:104C0000354C0008394D0008394D0008394D000871
:104C1000754C0008394D0008394D0008394D000821
:104C2000B74C0008394D0008394D0008394D0008CF
:104C3000F74C0008FB681B68B968184600F0F0F9EB
:104C4000FB681B689A69FB681B6842F008029A615E
:104C5000FB681B689A69FB681B6822F004029A6172
:104C6000FB681B689969BB681A69FB681B680A4383
:104C70009A6164E0FB681B68B968184600F040FA66
:104C8000FB681B689A69FB681B6842F400629A61C2
:104C9000FB681B689A69FB681B6822F480629A6152
:104CA000FB681B689969BB681B691A02FB681B6873
:104CB0000A439A6143E0FB681B68B968184600F034
:104CC00095FAFB681B68DA69FB681B6842F008020A
:104CD000DA61FB681B68DA69FB681B6822F0040272
:104CE000DA61FB681B68D969BB681A69FB681B68D5
:104CF0000A43DA6123E0FB681B68B968184600F0D4
:104D0000E9FAFB681B68DA69FB681B6842F4006219
:104D1000DA61FB681B68DA69FB681B6822F4806251
:104D2000DA61FB681B68D969BB681B691A02FB68FA
:104D30001B680A43DA6102E00123FB7500BFFB68D0
:104D4000002283F83C20FB7D18461837BD4680BD05
:104D500080B584B000AF786039600023FB737B6856
:104D600093F83C30012B01D10223B4E07B6801228F
:104D700083F83C207B68022283F83D207B681B6817
:104D80009B68BB60BB6823F07703BB60BB6823F400
:104D90007F43BB607B681B68BA689A603B681B688E
:104DA000B3F5005F3ED0B3F5005F00F28780B3F546
:104DB000805F00F08680B3F5805F7FD8702B1AD0BB
:104DC000702B7BD8602B50D0602B77D8502B3CD0E9
:104DD000502B73D8402B58D0402B6FD8302B64D039
:104DE000302B6BD8202B60D0202B67D8002B5CD0C9
:104DF000102B5AD062E07B6818683B6899683B6862
:104E00005A683B68DB6800F035FB7B681B689B6871
:104E1000BB60BB6843F07703BB607B681B68BA6804
:104E20009A604FE07B6818683B6899683B685A68ED
:104E30003B68DB6800F01EFB7B681B689A687B6838
:104E40001B6842F480429A603CE07B6818683B68CB
:104E500059683B68DB681A4600F092FA7B681B6869
:104E60005021184600F0EBFA2CE07B6818683B688C
:104E700059683B68DB681A4600F0B1FA7B681B682A
:104E80006021184600F0DBFA1CE07B6818683B687C
:104E900059683B68DB681A4600F072FA7B681B6849
:104EA0004021184600F0CBFA0CE07B681A683B689A
:104EB0001B681946104600F0C2FA03E00123FB7399
:104EC00000E000BF7B68012283F83D207B68002260
:104ED00083F83C20FB7B18461037BD4680BD0000A0
:104EE00080B485B000AF786039607B681B68FB6078
:104EF0007B68404A934213D07B68B3F1804F0FD058
:104F00007B683D4A93420BD07B683C4A934207D072
:104F10007B683B4A934203D07B683A4A934208D16C
:104F2000FB6823F07003FB603B685B68FA6813431F
:104F3000FB607B682F4A93422BD07B68B3F1804F94
:104F400027D07B682C4A934223D07B682B4A93421C
:104F50001FD07B682A4A93421BD07B68294A934220
:104F600017D07B68284A934213D07B68274A934224
:104F70000FD07B68264A93420BD07B68254A934228
:104F800007D07B68244A934203D07B68234A93422C
:104F900008D1FB6823F44073FB603B68DB68FA6868
:104FA0001343FB60FB6823F080023B685B6913439B
:104FB000FB607B68FA681A603B689A687B68DA6213
:104FC0003B681A687B689A627B680A4A934203D0FE
:104FD0007B680C4A934203D13B681A697B681A6369
:104FE0007B6801225A6100BF1437BD465DF8047B1F
:104FF000704700BF0000014000040040000800406E
:10500000000C004000040140004001400044014009
:105010000048014000180040001C004000200040F3
:1050200080B487B000AF786039607B681B6A23F07A
:1050300001027B681A627B681B6A7B617B685B6824
:105040003B617B689B69FB60FB6823F07003FB603E
:10505000FB6823F00303FB603B681B68FA6813439B
:10506000FB607B6923F002037B613B689B687A6984
:1050700013437B617B68204A934203D07B681F4ABD
:1050800093420CD17B6923F008037B613B68DB68AA
:105090007A6913437B617B6923F004037B617B683E
:1050A000154A934203D07B68144A934211D13B695D
:1050B00023F480733B613B6923F400733B613B68DD
:1050C0005B693A6913433B613B689B693A691343E7
:1050D0003B617B683A695A607B68FA689A613B6811
:1050E0005A687B685A637B687A691A6200BF1C370A
:1050F000BD465DF8047B704700000140000401409C
:1051000080B487B000AF786039607B681B6A23F099
:1051100010027B681A627B681B6A7B617B685B6834
:105120003B617B689B69FB60FB6823F4E043FB60A9
:10513000FB6823F44073FB603B681B681B02FA6842
:105140001343FB607B6923F020037B613B689B6812
:105150001B017A6913437B617B68224A934203D027
:105160007B68214A93420DD17B6923F080037B61E8
:105170003B68DB681B017A6913437B617B6923F021
:1051800040037B617B68174A934203D07B68164AD1
:10519000934213D13B6923F480633B613B6923F461
:1051A00000633B613B685B699B003A6913433B6169
:1051B0003B689B699B003A6913433B617B683A6992
:1051C0005A607B68FA689A613B685A687B689A63A0
:1051D0007B687A691A6200BF1C37BD465DF8047BA4
:1051E000704700BF000001400004014080B487B058
:1051F00000AF786039607B681B6A23F480727B683B
:105200001A627B681B6A7B617B685B683B617B68B9
:10521000DB69FB60FB6823F07003FB60FB6823F035
:105220000303FB603B681B68FA681343FB607B6900
:1052300023F400737B613B689B681B027A6913430C
:105240007B617B68214A934203D07B68204A93426A
:105250000DD17B6923F400637B613B68DB681B0233
:105260007A6913437B617B6923F480637B617B688C
:10527000164A934203D07B68154A934213D13B6987
:1052800023F480533B613B6923F400533B613B684B
:105290005B691B013A6913433B613B689B691B01D6
:1052A0003A6913433B617B683A695A607B68FA68E4
:1052B000DA613B685A687B68DA637B687A691A62EC
:1052C00000BF1C37BD465DF8047B704700000140FD
:1052D0000004014080B487B000AF786039607B681B
:1052E0001B6A23F480527B681A627B681B6A3B61ED
:1052F0007B685B687B617B68DB69FB60FB6823F430
:10530000E043FB60FB6823F44073FB603B681B6871
:105310001B02FA681343FB603B6923F400533B61B3
:105320003B689B681B033A6913433B617B68124AE5
:10533000934203D07B68114A934209D17B6923F4DD
:1053400080437B613B685B699B017A6913437B61A6
:105350007B687A695A607B68FA68DA613B685A68E8
:105360007B681A647B683A691A6200BF1C37BD46C5
:105370005DF8047B704700BF00000140000401405D
:1053800080B487B000AFF860B9607A60FB681B6AD0
:105390007B61FB681B6A23F00102FB681A62FB68F1
:1053A0009B693B613B6923F0F0033B617B681B0118
:1053B0003A6913433B617B6923F00A037B617A6995
:1053C000BB6813437B61FB683A699A61FB687A6941
:1053D0001A6200BF1C37BD465DF8047B704780B47D
:1053E00087B000AFF860B9607A60FB681B6A23F091
:1053F0001002FB681A62FB689B697B61FB681B6A91
:105400003B617B6923F470437B617B681B037A6992
:1054100013437B613B6923F0A0033B61BB681B0125
:105420003A6913433B61FB687A699A61FB683A69A0
:105430001A6200BF1C37BD465DF8047B704780B41C
:1054400085B000AF786039607B689B68FB60FB6863
:1054500023F07003FB603A68FB68134343F00703D3
:10546000FB607B68FA689A6000BF1437BD465DF840
:10547000047B704780B487B000AFF860B9607A6091
:105480003B60FB689B687B617B6923F47F437B61A6
:105490003B681A027B681A43BB6813437A6913435B
:1054A0007B61FB687A699A6000BF1C37BD465DF876
:1054B000047B704780B485B000AF786039607B684A
:1054C00093F83C30012B01D102235AE07B68012282
:1054D00083F83C207B68022283F83D207B681B68B0
:1054E0005B68FB607B681B689B68BB60FB6823F0A4
:1054F0007003FB603B681B68FA681343FB607B68C2
:105500001B68FA685A607B681B68214A934222D064
:105510007B681B68B3F1804F1DD07B681B681D4AF8
:10552000934218D07B681B681B4A934213D07B6858
:105530001B681A4A93420ED07B681B68184A934234
:1055400009D07B681B68174A934204D07B681B68AC
:10555000154A93420CD1BB6823F08003BB603B68C3
:105560005B68BA681343BB607B681B68BA689A6063
:105570007B68012283F83D207B68002283F83C2071
:10558000002318461437BD465DF8047B704700BF02
:10559000000001400004004000080040000C0040F2
:1055A00000040140004001400018004080B485B074
:1055B00000AF786039600023FB607B6893F83C3073
:1055C000012B01D102233DE07B68012283F83C20BE
:1055D000FB6823F0FF023B68DB681343FB60FB685A
:1055E00023F440723B689B681343FB60FB6823F421
:1055F00080623B685B681343FB60FB6823F40062D6
:105600003B681B681343FB60FB6823F480523B68D4
:105610001B691343FB60FB6823F400523B685B6922
:105620001343FB60FB6823F480423B68DB69134350
:10563000FB607B681B68FA685A647B68002283F809
:105640003C20002318461437BD465DF8047B7047A4
:1056500080B582B000AF78607B68002B01D1012358
:105660003FE07B6893F83D30DBB2002B06D17B68CE
:10567000002283F83C207868FCF734FD7B68242204
:1056800083F83D207B681B68DA687B681B6822F41E
:105690000052DA60786800F07BFD7B681B681A694D
:1056A0007B681B6822F490421A617B681B685A6908
:1056B0007B681B6822F02A025A617B681B68DA68E3
:1056C0007B681B6842F40052DA607B6800221A642F
:1056D0007B68202283F83D207B68202283F83E20CF
:1056E000002318460837BD4680BD80B58AB002AF9A
:1056F000F860B9603B601346FB8000237B61FB6868
:1057000093F83D30DBB2202B7CD1BB68002B02D05C
:10571000FB88002B01D1012375E0FB6893F83C3036
:10572000012B01D102236EE0FB68012283F83C20AB
:10573000FB6800221A64FB68212283F83D20FCF7F5
:105740006BFE7861FB68FA889A84FB68FA88DA84D1
:10575000FB689B68B3F5805F08D1FB681B69002B71
:1057600004D10023FB61BB68BB6103E0BB68FB6144
:105770000023BB61FB68002283F83C202AE03B68E1
:1057800000937B6900228021F86800F0F9FA034653
:10579000002B01D0032336E0FB69002B0BD1BB6942
:1057A0001B881A46FB681B68C2F308025A60BB6973
:1057B0000233BB6107E0FB691A78FB681B685A601B
:1057C000FB690133FB61FB68DB8C9BB2013B9AB246
:1057D000FB68DA84FB68DB8C9BB2002BCFD13B6883
:1057E00000937B6900224021F86800F0C9FA034663
:1057F000002B01D0032306E0FB68202283F83D2024
:10580000002300E0022318462037BD4680BD00007B
:1058100080B5BAB000AF78607B681B681B68C7F8BA
:10582000E4307B681B68DB68C7F8E0307B681B6886
:105830005B69C7F8DC300023C7F8D8300023C7F80D
:10584000D430D7F8E43003F00F03C7F8D830D7F8D6
:10585000D830002B0FD1D7F8E43003F02003002B11
:1058600009D0D7F8E03003F02003002B03D078688C
:1058700000F0D3FB56E2D7F8D830002B00F0DE80E2
:10588000D7F8DC3003F00103002B06D1D7F8E03065
:1058900003F49073002B00F0D180D7F8E43003F0CC
:1058A0000103002B0BD0D7F8E03003F48073002BFA
:1058B00005D07B681B6C43F001027B681A64D7F843
:1058C000E43003F00403002B0BD0D7F8DC3003F0F6
:1058D0000103002B05D07B681B6C43F002027B6840
:1058E0001A64D7F8E43003F00203002B0BD0D7F88A
:1058F000DC3003F00103002B05D07B681B6C43F008
:1059000004027B681A64D7F8E43003F00803002B24
:1059100011D0D7F8E03003F02003002B05D1D7F8E1
:10592000DC3003F00103002B05D07B681B6C43F0D7
:1059300008027B681A647B681B6C002B00F0ED8109
:10594000D7F8E43003F02003002B08D0D7F8E0307C
:1059500003F02003002B02D0786800F05EFB7B6828
:105960001B685B6903F04003402B0CBF012300233D
:10597000DBB2C7F8D4307B681B6C03F00803002B44
:1059800003D1D7F8D430002B4FD0786800F066FAF6
:105990007B681B685B6903F04003402B41D17B6847
:1059A0001B681433C7F89C30D7F89C3053E8003F8D
:1059B000C7F89830D7F8983023F04003C7F8D030B4
:1059C0007B681B681433D7F8D020C7F8A820C7F825
:1059D000A430D7F8A410D7F8A82041E80023C7F8CE
:1059E000A030D7F8A030002BD9D17B689B6B002B5F
:1059F00013D07B689B6B7D4A1A657B689B6B18464E
:105A0000FCF76AFF0346002B16D07B689B6B1B6D6F
:105A10007A68926B104698470EE0786800F09AF921
:105A20000AE0786800F096F906E0786800F092F9EC
:105A30007B6800221A6470E100BF6EE17B681B6B1B
:105A4000012B40F04A81D7F8E43003F01003002B1B
:105A500000F04381D7F8E03003F01003002B00F092
:105A60003C810023BB607B681B681B68BB607B6854
:105A70001B685B68BB60BB687B681B685B6903F085
:105A80004003402B40F0B4807B689B6B1B685B68D5
:105A9000A7F8BE30B7F8BE30002B00F040817B681D
:105AA0009B8DB7F8BE209A4280F039817B68B7F8A9
:105AB000BE20DA857B689B6BDB69B3F5807F00F0E5
:105AC00088807B681B680C33C7F88830D7F888302B
:105AD00053E8003FC7F88430D7F8843023F480734C
